:020000040800F2
:10000000184E002439030008018E000839750008D5
:1000100051860008A1050008A9C0000800000000E2
:10002000000000000000000000000000D196000861
:100030000908000800000000D1920008619800083B
:100040005303000853030008530300085303000838
:100050005303000853030008530300085303000828
:100060005303000853030008530300085303000818
:100070005303000853030008530300085303000808
:1000800053030008530300085303000853030008F8
:1000900053030008530300085303000853030008E8
:1000A00053030008530300085303000853030008D8
:1000B00053030008530300085303000853030008C8
:1000C00053030008530300085303000853030008B8
:1000D0005303000899C000085303000853030008A5
:1000E00053030008530300080000000053030008F6
:1000F0005303000853030008530300085303000888
:100100005303000853030008530300085303000877
:1001100099A600085303000853030008719B0008C8
:100120005303000853030008530300085303000857
:100130005303000853030008530300085303000847
:1001400000000000000000000000000000000000AF
:100150005303000853030008530300085303000827
:100160005303000853030008530300085303000817
:100170005303000853030008530300085303000807
:1001800053030008530300085303000853030008F7
:1001900053030008530300085303000853030008E7
:1001A00053030008530300085303000853030008D7
:1001B00053030008530300085303000853030008C7
:1001C00053030008530300085303000853030008B7
:1001D00053030008530300085303000853030008A7
:1001E0005303000853030008530300085303000897
:1001F0005303000853030008530300085303000887
:100200005303000853030008530300085303000876
:100210005303000853030008619B000853030008C0
:1002200053030008530300085303000800000000B4
:1002300053030008530300080000000053030008A4
:100240005303000853030008530300085303000836
:100250005303000853030008530300085303000826
:100260005303000853030008530300085303000816
:100270005303000853030008530300080000000064
:100280005303000853030008530300080000000054
:10029000000000005303000800F002F800F03CF8F2
:1002A0000AA090E8000C82448344AAF10107DA45D1
:1002B00001D100F031F8AFF2090EBAE80F0013F0E7
:1002C000010F18BFFB1A43F00103184718E800009C
:1002D00038E80000103A24BF78C878C1FAD852072D
:1002E00024BF30C830C144BF04680C6070470000B0
:1002F0000023002400250026103A28BF78C1FBD82F
:10030000520728BF30C148BF0B6070471FB50DF0C2
:10031000C1FD1FBD10B510BD00F006F91146FFF775
:10032000F5FF0BF069FF00F024F903B4FFF7F2FFCB
:1003300003BC00F02BF9000009488047094800473A
:10034000FEE7FEE7FEE7FEE7FEE7FEE7FEE7FEE785
:10035000FEE7FEE704480549054A064B70470000E2
:10036000019A00089902000818480024184E002439
:10037000184A0024184A002453EA020C00F069804D
:100380002DE9F04B4FF00006002B1FBFB3FA83F5A9
:1003900003FA05F424FA05F65E4012BF1643B2FADA
:1003A00082F502FA05F4C5F120051EBF22FA05FC0C
:1003B00044EA0C04203556EA044C4FEA144418BFB2
:1003C000641C4FF000084FF00009904271EB030CE1
:1003D00039D3002919BFB1FA81F701FA07F6B0FA4B
:1003E00080F700FA07F6C7F120071EBF20FA07FCC6
:1003F00046EA0C062037B6FBF4FCA7EB0507103FD6
:1004000007F01F0BCBF120062CFA06F60CFA0BFBBB
:1004100044BFB3460026202FA4BF5E464FF0000B1A
:100420005BEA060C08BF4FF0010B19EB0B0948EB18
:100430000608ABFB027C06FB02CC0BFB03CCC01B0B
:1004400071EB0C01C1E70B46024641464846BDE848
:10045000F08B13B5084318BF4FF0FF300146AFF3E0
:100460000080BDE81C407047002800DA4042704719
:1004700010B5203AC0F00B80B1E81850A0E8185031
:10048000B1E81850A0E81850203ABFF4F5AF5FEA81
:10049000027C24BFB1E81850A0E8185044BF18C926
:1004A00018C0BDE810405FEA827C24BF51F8043BCD
:1004B00040F8043B08BF7047D20728BF31F8023B21
:1004C00048BF11F8012B28BF20F8023B48BF00F8B5
:1004D000012B70474FF0000200B513469446964634
:1004E000203922BFA0E80C50A0E80C50B1F1200147
:1004F000BFF4F7AF090728BFA0E80C5048BF0CC0F5
:100500005DF804EB890028BF40F8042B08BF704752
:1005100048BF20F8022B11F0804F18BF00F8012BC4
:100520007047704770477047754600F02BF8AE462D
:1005300005006946534620F00700854618B020B5EF
:10054000FFF708FFBDE820404FF000064FF000071E
:100550004FF000084FF0000BAC46ACE8C009ACE827
:10056000C009ACE8C009ACE8C00921F007018D461C
:10057000704710B50446AFF300802046BDE8104038
:10058000FFF7D3BE00487047D80000240149182067
:10059000ABBEFEE72600020070470000000000002E
:1005A000FFE7FEE70000000080B58EB00D900C91D3
:1005B0000B920C98016841600C98C069406A0C99D4
:1005C00008600C9801684268891A81600C988068FC
:1005D000B0F5004F07DBFFE70C9881684FF6FF721C
:1005E000891A81600DE00C98806810F5004F07DCD7
:1005F000FFE70C9881684FF6FF7211448160FFE7B6
:10060000FFE70D980C998A68801AC8600C98C16839
:10061000C1EB0111C90001610C98C168426902EB8C
:10062000410141610C984069652804DBFFE70C98A3
:10063000642141610BE00C98406910F1650F05DC05
:10064000FFE70C986FF063014161FFE7FFE70C984B
:1006500001694269114481610C988069B0F5757F28
:1006600005DDFFE70C984FF4757181610DE00C9882
:10067000806910F5757F07DAFFE70C984FF62C417B
:10068000CFF6FF718161FFE7FFE70B98002818D0D4
:10069000FFE70C98D0F8B810B0F8BC0000220A9020
:1006A00008460A99099201F007FB0C98D0F8C0108F
:1006B000B0F8C400089008460899099A01F0FCFABD
:1006C0003AE00C988069012817DBFFE70C98D0F816
:1006D000B810B0F8BC00002207900846079901F056
:1006E000EBFA0C98D0F8C010B0F8C40001220690C4
:1006F0000846069901F0E0FA1DE00C988069B0F117
:10070000FF3F17DCFFE70C98D0F8B810B0F8BC003A
:10071000012205900846059901F0CEFA0C98D0F810
:10072000C010B0F8C400002204900846049901F0FB
:10073000C3FAFFE7FFE7FFE70C98D0F8B400002802
:1007400009D1FFE70C988069FFF78EFE01460C9AED
:10075000926E506354E00C98D0F8B40004280AD18B
:10076000FFE70C988069FFF77FFE01460C9A926EB6
:100770009063039142E00C98D0F8B40008280AD1A5
:10078000FFE70C988069FFF76FFE01460C9A926EA6
:10079000D06302912FE00C98D0F8B4000C280AD155
:1007A000FFE70C988069FFF75FFE01460C9A926E96
:1007B000106401911CE00C98D0F8B40010280AD104
:1007C000FFE70C988069FFF74FFE01460C9A926E86
:1007D0009065009109E00C988069FFF745FE01469D
:1007E0000C9A926ED0650091FFE700980190FFE7A8
:1007F00001980290FFE702980390FFE70398FFE754
:100800000EB080BD00000000704700000000000036
:1008100081B0EFF3108072B60090FFE7FEE70000B2
:1008200080B58AB0089001F06BFA0490089800280F
:1008300005D1FFE701208DF8270000F0B4BC08982F
:1008400090F8350002280ED0FFE708988021416516
:10085000FFE70898002180F83410FFE701208DF8A9
:10086000270000F0A0BC0898006801211022C4F203
:1008700002029042039100F0A380FFE7089800680D
:1008800001212822C4F202029042039100F09880D4
:10089000FFE70898006801214022C4F2020290425A
:1008A000039100F08D80FFE708980068012158222D
:1008B000C4F202029042039100F08280FFE70898A0
:1008C000006801217022C4F202029042039177D0A5
:1008D000FFE70898006801218822C4F202029042D2
:1008E00003916DD0FFE7089800680121A022C4F2AF
:1008F00002029042039163D0FFE70898006801214B
:10090000B822C4F202029042039159D0FFE708983E
:100910000068012140F21042C4F2020290420391A9
:100920004ED0FFE708980068012140F22842C4F247
:1009300002029042039143D0FFE70898006801212A
:1009400040F24042C4F202029042039138D0FFE7E5
:1009500008980068012140F25842C4F20202904215
:1009600003912DD0FFE708980068012140F2704202
:10097000C4F202029042039122D0FFE70898006877
:10098000012140F28842C4F202029042039117D042
:10099000FFE708980068012140F2A042C4F2020279
:1009A000904203910CD0FFE7089800684FF6483159
:1009B000CBF6FD710844B0FA80F040090390FFE7E0
:1009C0000398C007002810D0FFE708980068016866
:1009D00021F01E01016008980068416921F0800142
:1009E000416108980068059009E00898006801686E
:1009F00021F00E010160089800680590FFE7089853
:100A0000006801211022C4F202029042029100F01B
:100A10000381FFE70898006801212822C4F202023E
:100A20009042029100F0F880FFE7089800680121E9
:100A30004022C4F202029042029100F0ED80FFE7F2
:100A40000898006801215822C4F2020290420291E3
:100A500000F0E280FFE70898006801217022C4F2EC
:100A600002029042029100F0D780FFE708980068E8
:100A700001218822C4F202029042029100F0CC804F
:100A8000FFE7089800680121A022C4F20202904208
:100A9000029100F0C180FFE7089800680121B822A8
:100AA000C4F202029042029100F0B680FFE708987B
:100AB0000068012140F21042C4F202029042029109
:100AC00000F0AA80FFE708980068012140F2284260
:100AD000C4F202029042029100F09E80FFE7089863
:100AE0000068012140F24042C4F2020290420291A9
:100AF00000F09280FFE708980068012140F2584218
:100B0000C4F202029042029100F08680FFE708984A
:100B10000068012140F27042C4F202029042029148
:100B20007AD0FFE708980068012140F28842C4F2B9
:100B30000202904202916FD0FFE7089800680121FD
:100B400040F2A042C4F202029042029164D0FFE758
:100B500008980068012140F2B842C4F202029042B3
:100B6000029159D0FFE708980068012145F2084238
:100B7000C5F60202904202914ED0FFE70898006845
:100B8000012145F21C42C5F602029042029143D077
:100B9000FFE708980068012145F23042C5F60202DD
:100BA0009042029138D0FFE708980068012145F291
:100BB0004442C5F60202904202912DD0FFE7089808
:100BC0000068012145F25842C5F6020290420291A6
:100BD00022D0FFE708980068012145F26C42C5F673
:100BE00002029042029117D0FFE7089800680121A5
:100BF00045F28042C5F60202904202910CD0FFE716
:100C0000089800684AF66C31CAF2FD710844B0FADF
:100C100080F040090290FFE70298C007002807D043
:100C2000FFE70898006E016821F480710160FFE71A
:100C3000089800681021C4F20201884200F0818007
:100C4000FFE7089800682821C4F20201884278D0A2
:100C5000FFE7089800684021C4F20201884270D082
:100C6000FFE7089800685821C4F20201884268D062
:100C7000FFE7089800687021C4F20201884260D042
:100C8000FFE7089800688821C4F20201884258D022
:100C9000FFE708980068A021C4F20201884250D002
:100CA000FFE708980068B821C4F20201884248D0E2
:100CB000FFE70898006840F21041C4F20201884240
:100CC0003FD0FFE70898006840F22841C4F20201D3
:100CD000884236D0FFE70898006840F24041C4F2ED
:100CE000020188422DD0FFE70898006840F2584181
:100CF000C4F20201884224D0FFE70898006840F25D
:100D00007041C4F2020188421BD0FFE708980068D6
:100D100040F28841C4F20201884212D0FFE70898ED
:100D2000006840F2A041C4F20201884209D0FFE706
:100D30000898006840F2B841C4F20201884208D124
:100D4000FFE708980068016821F001010A46016088
:100D500007E008980068016821F001010A46016077
:100D6000FFE7FFE705980068C007002819D0FFE7F4
:100D700000F0C6FF0499401A062811D3FFE708982F
:100D8000202141650898032180F83510FFE7089875
:100D9000002180F83410FFE701208DF8270002E2DF
:100DA000E0E70898006801211022C4F20202904294
:100DB000019100F0A380FFE7089800680121282234
:100DC000C4F202029042019100F09880FFE7089877
:100DD000006801214022C4F202029042019100F019
:100DE0008D80FFE70898006801215822C4F20202B2
:100DF0009042019100F08280FFE70898006801218D
:100E00007022C4F202029042019177D0FFE7089865
:100E1000006801218822C4F20202904201916DD043
:100E2000FFE7089800680121A022C4F20202904264
:100E3000019163D0FFE7089800680121B822C4F24D
:100E400002029042019159D0FFE708980068012101
:100E500040F21042C4F20202904201914ED0FFE7EC
:100E600008980068012140F22842C4F20202904230
:100E7000019143D0FFE708980068012140F2404209
:100E8000C4F202029042019138D0FFE7089800684E
:100E9000012140F25842C4F20202904201912DD049
:100EA000FFE708980068012140F27042C4F2020294
:100EB0009042019122D0FFE708980068012140F29A
:100EC0008842C4F202029042019117D0FFE70898CD
:100ED0000068012140F2A042C4F202029042019156
:100EE0000CD0FFE7089800684FF64831CBF6FD714B
:100EF0000844B0FA80F040090190FFE70198C0076C
:100F000000280DD0FFE70898806D07900898C06D05
:100F100000F01F003F2101FA00F0079988600CE003
:100F20000898806D06900898C06D00F01F000121A0
:100F300001FA00F006994860FFE70898006801216F
:100F40001022C4F202029042009100F00381FFE7F8
:100F50000898006801212822C4F202029042009100
:100F600000F0F880FFE70898006801214022C4F2F1
:100F700002029042009100F0ED80FFE708980068BF
:100F800001215822C4F202029042009100F0E28056
:100F9000FFE70898006801217022C4F20202904223
:100FA000009100F0D780FFE70898006801218822AF
:100FB000C4F202029042009100F0CC80FFE7089852
:100FC00000680121A022C4F202029042009100F0C8
:100FD000C180FFE7089800680121B822C4F202022C
:100FE0009042009100F0B680FFE708980068012168
:100FF00040F21042C4F202029042009100F0AA8036
:10100000FFE708980068012140F22842C4F202027A
:101010009042009100F09E80FFE70898006801214F
:1010200040F24042C4F202029042009100F09280ED
:10103000FFE708980068012140F25842C4F202021A
:101040009042009100F08680FFE708980068012137
:1010500040F27042C4F20202904200917AD0FFE75F
:1010600008980068012140F28842C4F202029042CE
:1010700000916FD0FFE708980068012140F2A0427C
:10108000C4F202029042009164D0FFE70898006821
:10109000012140F2B842C4F202029042009159D0BC
:1010A000FFE708980068012145F20842C5F60202F0
:1010B000904200914ED0FFE708980068012145F268
:1010C0001C42C5F602029042009143D0FFE7089807
:1010D0000068012145F23042C5F6020290420091BB
:1010E00038D0FFE708980068012145F24442C5F670
:1010F0000202904200912DD0FFE70898006801217C
:1011000045F25842C5F602029042009122D0FFE714
:1011100008980068012145F26C42C5F6020290422F
:10112000009117D0FFE708980068012145F280423E
:10113000C5F60202904200910CD0FFE708980068C3
:101140004AF66C31CAF2FD710844B0FA80F04009E9
:101150000090FFE70098C007002815D0FFE7089827
:10116000416E806E48600898C06E00280BD0FFE783
:101170000898C06E016821F4807101600898016FC1
:10118000406F4860FFE7FFE70898012180F83510BD
:10119000FFE70898002180F83410FFE7FFE7002000
:1011A0008DF82700FFE79DF827000AB080BD0000FA
:1011B00080B586B004900498002804D1FFE7012090
:1011C0008DF817004EE3049890F83500022807D0F8
:1011D000FFE704988021416501208DF8170041E365
:1011E0000498006801211022C4F202029042029188
:1011F00000F0A380FFE70498006801212822C4F2D0
:1012000002029042029100F09880FFE70498006883
:1012100001214022C4F202029042029100F08D802E
:10122000FFE70498006801215822C4F202029042AC
:10123000029100F08280FFE704980068012170228B
:10124000C4F202029042029177D0FFE7049800684E
:1012500001218822C4F20202904202916DD0FFE780
:10126000049800680121A022C4F202029042029177
:1012700063D0FFE7049800680121B822C4F202029B
:101280009042029159D0FFE704980068012140F292
:101290001042C4F20202904202914ED0FFE704983D
:1012A0000068012140F22842C4F2020290420291F9
:1012B00043D0FFE704980068012140F24042C4F2A5
:1012C00002029042029138D0FFE7049800680121A1
:1012D00040F25842C4F20202904202912DD0FFE740
:1012E00004980068012140F27042C4F20202904268
:1012F000029122D0FFE704980068012140F2884261
:10130000C4F202029042029117D0FFE704980068ED
:10131000012140F2A042C4F20202904202910CD09C
:10132000FFE7049800684FF64831CBF6FD7108449A
:10133000B0FA80F040090290FFE70298C007002849
:1013400000F09F80FFE70498042180F8351004988E
:1013500000681021C4F20201884200F08180FFE79A
:10136000049800682821C4F20201884278D0FFE77F
:10137000049800684021C4F20201884270D0FFE75F
:10138000049800685821C4F20201884268D0FFE73F
:10139000049800687021C4F20201884260D0FFE71F
:1013A000049800688821C4F20201884258D0FFE7FF
:1013B00004980068A021C4F20201884250D0FFE7DF
:1013C00004980068B821C4F20201884248D0FFE7BF
:1013D0000498006840F21041C4F2020188423FD0F4
:1013E000FFE70498006840F22841C4F202018842F5
:1013F00036D0FFE70498006840F24041C4F2020191
:1014000088422DD0FFE70498006840F25841C4F2AA
:101410000201884224D0FFE70498006840F270413E
:10142000C4F2020188421BD0FFE70498006840F232
:101430008841C4F20201884212D0FFE70498006894
:1014400040F2A041C4F20201884209D0FFE70498AB
:10145000006840F2B841C4F20201884208D1FFE7B7
:1014600004980068016821F001010A46016007E064
:1014700004980068016821F001010A460160FFE755
:10148000EBE104980068016821F00E010160049806
:1014900000681021C4F20201884200F08180FFE759
:1014A000049800682821C4F20201884278D0FFE73E
:1014B000049800684021C4F20201884270D0FFE71E
:1014C000049800685821C4F20201884268D0FFE7FE
:1014D000049800687021C4F20201884260D0FFE7DE
:1014E000049800688821C4F20201884258D0FFE7BE
:1014F00004980068A021C4F20201884250D0FFE79E
:1015000004980068B821C4F20201884248D0FFE77D
:101510000498006840F21041C4F2020188423FD0B2
:10152000FFE70498006840F22841C4F202018842B3
:1015300036D0FFE70498006840F24041C4F202014F
:1015400088422DD0FFE70498006840F25841C4F269
:101550000201884224D0FFE70498006840F27041FD
:10156000C4F2020188421BD0FFE70498006840F2F1
:101570008841C4F20201884212D0FFE70498006853
:1015800040F2A041C4F20201884209D0FFE704986A
:10159000006840F2B841C4F20201884208D1FFE776
:1015A00004980068016821F001010A46016007E023
:1015B00004980068016821F001010A460160FFE714
:1015C0000498006801211022C4F2020290420191A5
:1015D00000F00381FFE70498006801212822C4F28B
:1015E00002029042019100F0F880FFE70498006841
:1015F00001214022C4F202029042019100F0ED80EC
:10160000FFE70498006801215822C4F202029042C8
:10161000019100F0E280FFE7049800680121702248
:10162000C4F202029042019100F0D780FFE70498D3
:10163000006801218822C4F202029042019100F068
:10164000CC80FFE7049800680121A022C4F20202C6
:101650009042019100F0C180FFE7049800680121E9
:10166000B822C4F202029042019100F0B680FFE776
:1016700004980068012140F21042C4F20202904234
:10168000019100F0AA80FFE704980068012140F270
:101690002842C4F202029042019100F09E80FFE7CE
:1016A00004980068012140F24042C4F202029042D4
:1016B000019100F09280FFE704980068012140F258
:1016C0005842C4F202029042019100F08680FFE786
:1016D00004980068012140F27042C4F20202904274
:1016E00001917AD0FFE704980068012140F2884216
:1016F000C4F20202904201916FD0FFE704980068A3
:10170000012140F2A042C4F202029042019164D051
:10171000FFE704980068012140F2B842C4F20202D7
:101720009042019159D0FFE704980068012145F2E9
:101730000842C5F60202904201914ED0FFE704989C
:101740000068012145F21C42C5F602029042019157
:1017500043D0FFE704980068012145F23042C5F606
:1017600002029042019138D0FFE7049800680121FD
:1017700045F24442C5F60202904201912DD0FFE7A6
:1017800004980068012145F25842C5F602029042D1
:10179000019122D0FFE704980068012145F26C42D4
:1017A000C5F602029042019117D0FFE70498006845
:1017B000012145F28042C5F60202904201910CD00F
:1017C000FFE7049800684AF66C31CAF2FD710844DC
:1017D000B0FA80F040090190FFE70198C0070028A7
:1017E00027D0FFE70498006E016821F48071016042
:1017F0000498806D03900498C06D00F01F000121D3
:1018000001FA00F0039948600498416E806E4860C8
:101810000498C06E00280BD0FFE70498C06E0168E2
:1018200021F4807101600498016F406F4860FFE708
:10183000FFE70498012180F83510FFE704980021A4
:1018400080F83410FFE70498006D002804D0FFE70B
:101850000498016D8847FFE7FFE7FFE700208DF858
:101860001700FFE79DF8170006B080BD00000000DC
:1018700080B584B0039000F043FA02900398019081
:1018800001980130002809D0FFE740F2CC00C2F2F5
:1018900000400078019908440190FFE7FFE700F05D
:1018A0002FFA0299401A0199884201D2FFE7F6E720
:1018B00004B080BD0000000090B00F900E91002099
:1018C0000D908020C5F600000A90FFE70E98006892
:1018D0000D99C840002800F0D581FFE70E980068F8
:1018E0000D99012202FA01F108400C900C98002891
:1018F00000F0C481FFE70E98406800F00300012863
:1019000007D0FFE70E98406800F0030002282FD1AF
:10191000FFE70F9880680B900D984000032101FAB3
:1019200000F00B9921EA00000B900E98C0680D9909
:10193000490088400B9908430B900B980F998860D9
:101940000F9840680B900D98012101FA00F00B9957
:1019500021EA00000B900E984068C0F300100D992A
:1019600088400B9908430B900B980F994860FFE74C
:101970000E98406800F00300032818D0FFE70F9886
:10198000C0680B900D984000032101FA00F00B99FC
:1019900021EA00000B900E9880680D99490088405C
:1019A0000B9908430B900B980F99C860FFE70E98AE
:1019B000406800F00300022826D1FFE70F980D9938
:1019C0006FF0030202EA51010844006A0B900D987F
:1019D00000F0070080000F2101FA00F00B9921EAC6
:1019E00000000B900E9800690D9901F00701890025
:1019F00088400B9908430B900B980F990D9B02EAB6
:101A0000530211440862FFE70F9800680B900D988D
:101A10004000032101FA00F00B9921EA00000B902D
:101A20000E98406800F003000D99490088400B991A
:101A300008430B900B980F9908600E9880798007E7
:101A4000002800F01A81FFE7FFE744F2F440C5F6F2
:101A50000200016841F002010160006800F002002C
:101A600009900998FFE70D9820F0030040F2084123
:101A7000C5F6000140580B900D9800F0030080005F
:101A80000F2101FA00F00B9921EA00000B900F984A
:101A90000021C5F60201884203D1FFE7002008902B
:101AA0007AE00F9840F20041C5F60201884203D166
:101AB000FFE7012007906CE00F9840F60001C5F6A3
:101AC0000201884203D1FFE7022006905EE00F98F2
:101AD00040F60041C5F60201884203D1FFE703202A
:101AE000059050E00F9841F20001C5F602018842CE
:101AF00003D1FFE70420049042E00F9841F2004137
:101B0000C5F60201884203D1FFE70520039034E0C7
:101B10000F9841F60001C5F60201884203D1FFE7A4
:101B20000620029026E00F9841F60041C5F602011A
:101B3000884203D1FFE70720019018E00F9842F296
:101B40000001C5F60201884203D1FFE7082000909A
:101B50000AE00F9842F20041C5F602010A228842CB
:101B600008BF09220092FFE700980190FFE7019863
:101B70000290FFE702980390FFE703980490FFE7C5
:101B800004980590FFE705980690FFE706980790F0
:101B9000FFE707980890FFE708980D9901F0030107
:101BA000890088400B9908430B900B980D9921F000
:101BB000030140F20842C5F6000288504FF0B040E1
:101BC00000680B900C980B9921EA00000B900E987E
:101BD0008079C006002805D5FFE70C980B990843CB
:101BE0000B90FFE70B984FF0B04108600420C5F65A
:101BF000000000680B900C980B9921EA00000B90F4
:101C00000E9880798006002805D5FFE70C980B997F
:101C100008430B90FFE70B980421C5F6000108600C
:101C20000A9840680B900C980B9921EA00000B90E1
:101C30000E9880798007002805D5FFE70C980B994E
:101C400008430B90FFE70B980A9948600A980068D0
:101C50000B900C980B9921EA00000B900E9880795C
:101C6000C007002805D0FFE70C980B9908430B909C
:101C7000FFE70B980A990860FFE7FFE70D9801302E
:101C80000D9023E610B0704782B00A460190ADF87F
:101C9000021001980069BDF80210084204D0FFE765
:101CA00001208DF8010003E000208DF80100FFE71E
:101CB0009DF8010002B0704782B013468C46019037
:101CC000ADF802108DF801209DF80100002805D024
:101CD000FFE7BDF802000199886105E0BDF8020048
:101CE000000401998861FFE702B07047000000001E
:101CF00041F20000C5F600400068000C704700008B
:101D000044F21050C2F2004000687047000000002A
:101D100083B001900091019890F8410020283BD1B8
:101D2000FFE7FFE7019890F84000012804D1FFE7A2
:101D300002208DF80B0033E00198012180F840105B
:101D4000FFE7FFE70198242180F84110019800681F
:101D5000016821F00101016001980068016821F427
:101D6000805101600098019909680A681043086071
:101D700001980068016841F001010160019820218B
:101D800080F84110FFE70198002180F84010FFE73C
:101D900000208DF80B0003E002208DF80B00FFE718
:101DA0009DF80B0003B0704784B002900191029837
:101DB00090F84100202840D1FFE7FFE7029890F813
:101DC0004000012804D1FFE702208DF80F0038E021
:101DD0000298012180F84010FFE7FFE702982421D4
:101DE00080F8411002980068016821F0010101604B
:101DF0000298006800680090009820F470600090DD
:101E00000198009941EA0020009000980299096821
:101E1000086002980068016841F0010101600298C1
:101E2000202180F84110FFE70298002180F840103F
:101E3000FFE700208DF80F0003E002208DF80F006F
:101E4000FFE79DF80F0004B070470000000000009D
:101E500080B582B000900098002804D1FFE70120EF
:101E60008DF807007CE0009890F84100002808D128
:101E7000FFE70098002180F84010009800F0C0F9BA
:101E8000FFE70098242180F841100098006801685D
:101E900021F00101016000980168406820F0706045
:101EA000086100980068816821F400418160009811
:101EB000C068012807D1FFE700980168806840F4F6
:101EC0000040886006E000980168806840F40440A3
:101ED0008860FFE70098C068022807D1FFE70098F4
:101EE0000068416841F40061416006E000980068C4
:101EF000416821F400614160FFE700980068416893
:101F000048F20002C0F200221143416000980068CC
:101F1000C16821F40041C160009801680269436909
:101F200080691A4342EA0020C86000980168C269CB
:101F3000006A1043086000980068016841F00101E0
:101F400001600098002141640098202280F841201F
:101F500000980163009880F842108DF80710FFE7A1
:101F60009DF8070002B080BDF0B587B0DDF838C03D
:101F7000DDF834E00C9C1D4616460F460590ADF882
:101F80001210ADF81020ADF80E30ADF80CE0059849
:101F900090F84100202840F02981FFE70C980028A4
:101FA00005D0FFE7BDF80C00002808D1FFE7059831
:101FB0004FF40071416401208DF81B001AE1FFE726
:101FC000059890F84000012804D1FFE702208DF821
:101FD0001B000FE10598012180F84010FFE7FFE7A3
:101FE000FFF78EFE0290059802996A4611604FF441
:101FF00000410122192305F067FC002804D0FFE707
:1020000001208DF81B00F5E00598212180F8411092
:102010000598402180F842100598002141640C98F1
:10202000059A5062BDF80C00059A508505984163E9
:102030000598BDF81210BDF81020BDF80E30DDF87F
:1020400038C0DDF808E06C46C4F804E0C4F800C00D
:1020500005F09EFB00280AD0FFE7FFE70598002166
:1020600080F84010FFE701208DF81B00C2E00598C2
:10207000408DB0F5807F12D3FFE70598FF210185E1
:102080000598BDF8121090F828206B464FF0000C10
:10209000C3F800C04FF0807305F0E6FB12E005982E
:1020A000408D059908850598BDF8121090F82820F4
:1020B0006B464FF0000CC3F800C04FF0007305F002
:1020C000D3FBFFE7FFE705980E99029A05F0B8FCED
:1020D000002804D0FFE701208DF81B008AE0059856
:1020E0000168406A007888620598416A013141625E
:1020F0000598418D013941850598018D013901858A
:102100000598408D002841D0FFE70598008D0028F4
:102110003CD1FFE705980E9B02996A461160802129
:10212000002205F0D1FB002804D0FFE701208DF844
:102130001B005FE00598408DB0F5807F12D3FFE76C
:102140000598FF2101850598BDF8121090F8282008
:102150006B464FF0000CC3F800C04FF0807305F0E1
:1021600083FB12E00598408D059908850598BDF818
:10217000121090F828206B464FF0000CC3F800C0F6
:102180004FF0007305F070FBFFE7FFE7FFE70598EE
:10219000408D002897D1FFE705980E99029A05F027
:1021A000FBFB002804D0FFE701208DF81B0021E095
:1021B000059800682021C1610598006842684EF6C4
:1021C0000003CFF600631A404260059880F8411082
:1021D0000598002180F84210FFE70598002180F85B
:1021E0004010FFE700208DF81B0003E002208DF86F
:1021F0001B00FFE79DF81B0007B0F0BD00000000CA
:1022000080B5B8B037900020369035903490339038
:10221000329002A8C021FEF75DF93798006845F2B8
:102220000041C4F2000188423DD1FFE70020039045
:1022300008210291239002A800F0CAFC002803D0D4
:10224000FFE7FEF7E5FAFFE7FFE744F2E040C5F6F7
:102250000200016841F002010160006800F0020024
:1022600001900198FFE7C0203290122033900020A7
:10227000349035900420369040F20040C5F60200BC
:1022800032A9FFF719FBFFE744F2E840C5F6020068
:10229000016841F400110160006800F40010009032
:1022A0000098FFE7FFE738B080BD000000000000A5
:1022B00040F2CC00C2F20040007844F21051C2F269
:1022C00000410A68104408607047000000000000E8
:1022D00080B582B0032000F05BF901F0E5FF44F225
:1022E0001841C5F602010A68C2F303224DF60473D1
:1022F000C0F600039A5C02F01F02D04000900098E4
:10230000096801F00F01595C01F01F01C84040F25B
:102310002001C2F200410860009840F21C01C2F2A4
:10232000004108600F2000F013F8002804D0FFE7F8
:1023300001208DF8070005E000F0E2F800208DF89C
:102340000700FFE79DF8070002B080BD0000000015
:1023500080B592B0109010980F2810D8FFE7109910
:1023600037200022029000F0F3F8029800F0E4F821
:10237000109840F2D001C2F20041086003E0012051
:102380008DF8470052E0FFE744F2E840C5F602004E
:10239000016841F020010160006800F02000039016
:1023A0000398FFE708A804A901F0E6FE0D9806903F
:1023B0000698002804D1FFE701F04EFF079004E0E3
:1023C00001F04AFF40000790FFE707984DF6836150
:1023D000C4F21B31A0FB01014FF0FF3202EB91412F
:1023E000059140F28C61C2F2004141F20042C4F218
:1023F00000020A6040F2E732CA60059A4A60002291
:102400000A618A600190084602F0D6FF002809D1CF
:10241000FFE740F28C60C2F2004003F079F88DF8DB
:10242000470003E001208DF84700FFE79DF84700D3
:1024300012B080BD0000000010B581B0009000987F
:1024400040784EF69851CEF2000108604EF6A0504A
:10245000CEF20000016821F0010101600099496895
:102460004EF69C52CEF20002116000990A7B1207D0
:10247000CB7A42EA03620B7891F808C091F809E040
:102480008C7A42EAC4424C7B42EA84428C7B42EA28
:102490004442C97B42EA014141EA0E2141EA4C0132
:1024A0001943016001B010BDBFF35F8F4EF6245099
:1024B000CEF20000016821F4803101604EF69450A4
:1024C000CEF2000000210160704700000000000013
:1024D00081B00090009840F001004EF69451CEF289
:1024E000000108604EF62450CEF20000016841F46D
:1024F00080310160BFF34F8FBFF36F8F01B0704722
:1025000080B582B0FFE744F2F440C5F602000168EE
:1025100041F002010160006800F0020001900198A2
:10252000FFE76FF001000F21002200F011F802B068
:1025300080BD00000000000080B582B00146ADF80B
:102540000600BDF90600009109F0E2FD02B080BD71
:1025500080B588B00346ADF81E000691059203933E
:1025600009F0F2FD0490BDF91E000499069A059B3E
:102570000290084611461A4606F046FC0299019060
:102580000846019909F0E8FD08B080BD0000000090
:1025900080B582B00190019809F002FE02B080BDC2
:1025A00080B584B0029044F60C00C5F602000068C5
:1025B00000F004000021B1EB900F13D1FFE744F6C7
:1025C0000C00C5F60200006800F00700029988427E
:1025D00004D0FFE701208DF80F002EE000208DF8D9
:1025E0000F002AE044F60C00C5F60200016821F055
:1025F0000701029A11430160FFF782FB0190FFE798
:1026000044F60400C5F60200006800F40050002102
:10261000B1EB503F0DD1FFE7FFF772FB0199401A74
:10262000B0F57A7F04D9FFE701208DF80F0004E0B0
:10263000E6E700208DF80F00FFE79DF80F0004B0DB
:1026400080BD00000000000080B501F0D9FD44F21B
:102650002041C5F602010968C1F302114DF604726A
:10266000C0F60002515C01F01F01C84080BD0000AF
:1026700088B0079044F22840C5F60200016801F0D6
:10268000030106910068C0F30530059044F22C4028
:10269000C5F602000068C0F300100490049844F2EC
:1026A0003C41C5F60201096889B2C908484300EEF9
:1026B000100AB8EE400A8DED020A0598002800F0D5
:1026C0001D81FFE706980028009009D0FFE70098D9
:1026D00001286AD0FFE70098022800F08A80ACE069
:1026E00044F20040C5F60200006800F0200000211E
:1026F000B1EB501F34D0FFE744F20040C5F60200B2
:102700000068C0F3C10049F20001C0F2D03121FAE3
:1027100000F003909DED030AB8EE400A9DED051A06
:10272000B8EE411A80EE010A44F23840C5F60200C4
:1027300000686FF35F2001EE100AB8EE411A9DEDBC
:10274000022A9FED743A82EE032A31EE021AB7EEA6
:10275000002A31EE021A20EE010A8DED010A23E073
:102760009DED050AB8EE400A9FED6C1A81EE000A55
:1027700044F23840C5F6020000686FF35F2001EEB6
:10278000100AB8EE411A9DED022A9FED623A82EEE0
:10279000032A31EE021AB7EE002A31EE021A20EEB9
:1027A000010A8DED010AFFE76BE09DED050AB8EE29
:1027B000400A9FED591A81EE000A44F23840C5F6EE
:1027C000020000686FF35F2001EE100AB8EE411AB4
:1027D0009DED022A9FED4F3A82EE032A31EE021A56
:1027E000B7EE002A31EE021A20EE010A8DED010A41
:1027F00047E09DED050AB8EE400A9FED451A81EECF
:10280000000A44F23840C5F6020000686FF35F200A
:1028100001EE100AB8EE411A9DED022A9FED3D3AF5
:1028200082EE032A31EE021AB7EE002A31EE021AC6
:1028300020EE010A8DED010A23E09DED050AB8EEB8
:10284000400A9FED351A81EE000A44F23840C5F681
:10285000020000686FF35F2001EE100AB8EE411A23
:102860009DED022A9FED2B3A82EE032A31EE021AE9
:10287000B7EE002A31EE021A20EE010A8DED010AB0
:10288000FFE79DED010A44F23840C5F602000168F9
:1028900089B2490A01EE101AB8EE411AB7EE002AC1
:1028A00031EE021A80EE010A0799BCEEC00A81EDF2
:1028B000000A9DED010A0168C1F3064101EE101AFC
:1028C000B8EE411A31EE021A80EE010A0799BCEE09
:1028D000C00A81ED010A9DED010A0068C0F306609F
:1028E00001EE100AB8EE411A31EE021A80EE010A2A
:1028F0000798BCEEC00A80ED020A07E007980021A5
:1029000001600798416007988160FFE708B0704751
:1029100020BCBE4B000000460024744A0024744CC6
:1029200088B0079044F22840C5F60200016801F023
:10293000030106910068C0F30550059044F22C4055
:10294000C5F602000068C0F300200490049844F229
:102950004441C5F60201096889B2C908484300EE3E
:10296000100AB8EE400A8DED020A0598002800F022
:102970001D81FFE706980028009009D0FFE7009826
:1029800001286AD0FFE70098022800F08A80ACE0B6
:1029900044F20040C5F60200006800F0200000216B
:1029A000B1EB501F34D0FFE744F20040C5F60200FF
:1029B0000068C0F3C10049F20001C0F2D03121FA31
:1029C00000F003909DED030AB8EE400A9DED051A54
:1029D000B8EE411A80EE010A44F24040C5F602000A
:1029E00000686FF35F2001EE100AB8EE411A9DED0A
:1029F000022A9FED743A82EE032A31EE021AB7EEF4
:102A0000002A31EE021A20EE010A8DED010A23E0C0
:102A10009DED050AB8EE400A9FED6C1A81EE000AA2
:102A200044F24040C5F6020000686FF35F2001EEFB
:102A3000100AB8EE411A9DED022A9FED623A82EE2D
:102A4000032A31EE021AB7EE002A31EE021A20EE06
:102A5000010A8DED010AFFE76BE09DED050AB8EE76
:102A6000400A9FED591A81EE000A44F24040C5F633
:102A7000020000686FF35F2001EE100AB8EE411A01
:102A80009DED022A9FED4F3A82EE032A31EE021AA3
:102A9000B7EE002A31EE021A20EE010A8DED010A8E
:102AA00047E09DED050AB8EE400A9FED451A81EE1C
:102AB000000A44F24040C5F6020000686FF35F2050
:102AC00001EE100AB8EE411A9DED022A9FED3D3A43
:102AD00082EE032A31EE021AB7EE002A31EE021A14
:102AE00020EE010A8DED010A23E09DED050AB8EE06
:102AF000400A9FED351A81EE000A44F24040C5F6C7
:102B0000020000686FF35F2001EE100AB8EE411A70
:102B10009DED022A9FED2B3A82EE032A31EE021A36
:102B2000B7EE002A31EE021A20EE010A8DED010AFD
:102B3000FFE79DED010A44F24040C5F6020001683E
:102B400089B2490A01EE101AB8EE411AB7EE002A0E
:102B500031EE021A80EE010A0799BCEEC00A81ED3F
:102B6000000A9DED010A0168C1F3064101EE101A49
:102B7000B8EE411A31EE021A80EE010A0799BCEE56
:102B8000C00A81ED010A9DED010A0068C0F30660EC
:102B900001EE100AB8EE411A31EE021A80EE010A77
:102BA0000798BCEEC00A80ED020A07E007980021F2
:102BB00001600798416007988160FFE708B070479F
:102BC00020BCBE4B000000460024744A0024744C14
:102BD00080B59AB0189000208DF857008DF85600F7
:102BE0001898C078000700284AD5FFE71898806E2B
:102BF000002814900FD0FFE71498B0F5801F13D071
:102C0000FFE71498B0F5001F16D0FFE71498B0F551
:102C1000401F19D019E044F22C40C5F602000168AB
:102C200041F40031016014E018980830022106F0E8
:102C300083FB8DF857000CE018982830022106F02D
:102C40005FFC8DF8570004E003E001208DF8570089
:102C5000FFE79DF8570000280CD1FFE744F25040F1
:102C6000C5F60200016821F44011189A926E1143D2
:102C7000016004E09DF857008DF85600FFE7FFE77C
:102C800018984078C007002841D0FFE71898806D59
:102C90000428139020D81399DFE801F0030C141CCA
:102CA0001D0044F22C40C5F60200016841F40031D9
:102CB000016015E018980830002106F03DFB8DF802
:102CC00057000DE018982830002106F019FC8DF807
:102CD000570005E004E003E001208DF85700FFE70E
:102CE0009DF8570000280CD1FFE744F25040C5F68C
:102CF0000200016821F00701189A926D11430160EA
:102D000004E09DF857008DF85600FFE7FFE718989C
:102D10004078800700284DD5FFE71898C06D00283F
:102D2000129011D0FFE71298402816D0FFE71298B2
:102D300080281AD0FFE71298C0281ED0FFE712980B
:102D4000B0F5807F1AD01AE044F22C40C5F602009C
:102D5000016841F40031016015E018980830002145
:102D600006F0EAFA8DF857000DE018982830002197
:102D700006F0C6FB8DF8570005E004E003E00120F3
:102D80008DF85700FFE79DF8570000280CD1FFE7AA
:102D900044F25040C5F60200016821F4E071189A2F
:102DA000D26D1143016004E09DF857008DF8560084
:102DB000FFE7FFE7189840784007002852D5FFE763
:102DC0001898D0F8A8000028119014D0FFE71198A7
:102DD000B0F5001F18D0FFE71198B0F5800F1BD099
:102DE000FFE71198B0F5C00F1ED0FFE71198B0F5BE
:102DF000000F1AD01AE044F22C40C5F60200016818
:102E000041F40031016015E018980830002106F007
:102E100093FA8DF857000DE018982830002106F03D
:102E20006FFB8DF8570005E004E003E001208DF80A
:102E30005700FFE79DF8570000280DD1FFE744F247
:102E40005840C5F60200016821F46001189AD2F8D2
:102E5000A8201143016004E09DF857008DF856004A
:102E6000FFE7FFE7189840780007002852D5FFE7F2
:102E70001898D0F8AC000028109014D0FFE71098F4
:102E8000B0F1807F18D0FFE71098B0F1007F1BD021
:102E9000FFE71098B0F1407F1ED0FFE71098B0F127
:102EA000806F1AD01AE044F22C40C5F60200016887
:102EB00041F40031016015E018980830002106F057
:102EC0003BFA8DF857000DE018982830002106F0E5
:102ED00017FB8DF8570005E004E003E001208DF8B2
:102EE0005700FFE79DF8570000280DD1FFE744F297
:102EF0005840C5F60200016821F0E061189AD2F846
:102F0000AC201143016004E09DF857008DF8560095
:102F1000FFE7FFE71898C0788007002840D5FFE753
:102F20001898C06C00280F901ED0FFE70F9810284B
:102F300008D0FFE70F9820280DD0FFE70F98302822
:102F400011D012E044F22C40C5F60200016841F4B1
:102F5000003101600DE018980830022106F0ECF90C
:102F60008DF8570005E004E003E001208DF85700DC
:102F7000FFE79DF8570000280CD1FFE744F24C40D2
:102F8000C5F60200016821F03001189AD26C114395
:102F9000016004E09DF857008DF85600FFE7FFE759
:102FA00018984078C006002850D5FFE71898006EA2
:102FB00000280E9014D0FFE70E98B0F5805F18D06F
:102FC000FFE70E98B0F5005F1BD0FFE70E98B0F555
:102FD000405F1ED0FFE70E98B0F5804F1AD01AE080
:102FE00044F22C40C5F60200016841F40031016052
:102FF00015E018980830002106F09EF98DF857006A
:103000000DE018982830002106F07AFA8DF8570064
:1030100005E004E003E001208DF85700FFE79DF88C
:10302000570000280CD1FFE744F25040C5F60200DB
:10303000016821F4E041189A126E1143016004E026
:103040009DF857008DF85600FFE7FFE71898407885
:10305000800600284ED5FFE71898406E00280D9096
:1030600019D0FFE70D98B0F5803F15D0FFE70D9818
:10307000B0F5003F18D0FFE70D98B0F5403F1BD0EA
:10308000FFE70D98B0F5802F17D0FFE70D98B0F54A
:10309000A02F13D013E016E018980830012106F095
:1030A0004BF98DF857000EE018982830012106F0F2
:1030B00027FA8DF8570006E005E004E003E0012060
:1030C0008DF85700FFE79DF8570000280CD1FFE767
:1030D00044F25040C5F60200016821F4E021189A3C
:1030E000526E1143016004E09DF857008DF85600C0
:1030F000FFE7FFE7189840784006002850D5FFE723
:103100001898D0F8B00000280C9019D0FFE70C9860
:10311000B0F1805F15D0FFE70C98B0F1005F18D0D8
:10312000FFE70C98B0F1405F1BD0FFE70C98B0F1BF
:10313000804F17D0FFE70C98B0F1A04F13D013E0E9
:1031400016E018980830012106F0F6F88DF85700BF
:103150000EE018982830012106F0D2F98DF85700BA
:1031600006E005E004E003E001208DF85700FFE7EA
:103170009DF8570000280DD1FFE744F25840C5F6EE
:103180000200016821F0E041189AD2F8B020114302
:10319000016004E09DF857008DF85600FFE7FFE757
:1031A00018984078000600283DD5FFE71898006F72
:1031B00000280B901BD0FFE70B98B0F1805F05D083
:1031C000FFE70B98B0F1005F09D011E044F22C400A
:1031D000C5F60200016841F4003101600CE0189866
:1031E0000830012106F0A8F88DF8570004E003E04C
:1031F00001208DF85700FFE79DF8570000280CD1FB
:10320000FFE744F25040C5F60200016821F040514A
:10321000189A126F1143016004E09DF857008DF871
:103220005600FFE7FFE71898C078C007002838D09D
:10323000FFE71898806C03280A9017D80A99DFE8EE
:1032400001F014020B1344F22C40C5F60200016891
:1032500041F4003101600DE018980830022106F0B9
:103260006BF88DF8570005E004E003E001208DF8CD
:103270005700FFE79DF8570000280CD1FFE744F204
:103280004C40C5F60200016821F00301189A926CC7
:103290001143016004E09DF857008DF85600FFE7E8
:1032A000FFE7189880784006002840F1B780FFE7D4
:1032B00044F60000C5F60200016841F48071016027
:1032C000FEF71EFD1690FFE744F60000C5F602006B
:1032D0000068C00500280CD4FFE7FEF711FD169921
:1032E000401A652804D3FFE703208DF8570000E05B
:1032F000EAE79DF85700002840F08A80FFE744F293
:103300007040C5F60200006800F440701899D1F8CA
:10331000B41001F44071884213D0FFE744F27040CA
:10332000C5F60200016821F440711791016841F46B
:1033300080310160016821F48031016017990160DA
:10334000FFE71898D0F8B400B0F5807F1FD1FFE7F1
:10335000FEF7D6FC1690FFE744F27040C5F6020077
:10336000006800F002000021B1EB500F0ED1FFE722
:10337000FEF7C6FC1699401A41F28931884204D3FF
:10338000FFE703208DF8570000E0E5E7FFE79DF831
:103390005700002836D1FFE7FFE71898D0F8B400AF
:1033A00000F44070B0F5407F14D1FFE744F21040C4
:1033B000C5F60200016821F47C51189AD2F8B420B5
:1033C0004FF6F043C0F6FF731A4041EA12110A4665
:1033D000016009E044F21040C5F60200016821F4E2
:1033E0007C510A460160FFE71898D0F8B4006FF3EB
:1033F0001F3044F27041C5F602010A6810430860AC
:10340000FFE704E09DF857008DF85600FFE704E061
:103410009DF857008DF85600FFE7FFE71898006801
:10342000C007002800F04D80FFE71898C06F2828DB
:1034300009902BD80999DFE801F0152929292929B4
:10344000292916292929292929291E29292929290A
:1034500029292629292929292929272929292929E1
:103460002929280016E018980830012105F064FF8A
:103470008DF857000EE018982830012106F040F82A
:103480008DF8570006E005E004E003E001208DF828
:103490005700FFE79DF8570000280CD1FFE744F2E2
:1034A0005440C5F60200016821F03801189AD26F25
:1034B0001143016004E09DF857008DF85600FFE7C6
:1034C000FFE718980078800700283AD5FFE718989A
:1034D000806F0528089019D80899DFE801F00304E7
:1034E0000C14151616E018980830012105F024FF79
:1034F0008DF857000EE018982830012106F000F8EA
:103500008DF8570006E005E004E003E001208DF8A7
:103510005700FFE79DF8570000280CD1FFE744F261
:103520005440C5F60200016821F00701189A926F15
:103530001143016004E09DF857008DF85600FFE745
:10354000FFE718980078400700283CD5FFE7189857
:10355000D0F894000528079019D80799DFE801F002
:1035600003040C14151616E018980830012105F014
:10357000E3FE8DF857000EE018982830012105F081
:10358000BFFF8DF8570006E005E004E003E00120EE
:103590008DF85700FFE79DF8570000280DD1FFE791
:1035A00044F25840C5F60200016821F00701189A5C
:1035B000D2F894201143016004E09DF857008DF883
:1035C0005600FFE7FFE7189800788006002850D5DE
:1035D000FFE71898D0F890000028069019D0FFE770
:1035E0000698B0F1805F15D0FFE70698B0F1005F54
:1035F00018D0FFE70698B0F1405F1BD0FFE70698B0
:10360000B0F1804F17D0FFE70698B0F1A04F13D06C
:1036100013E016E018980830002105F08DFE8DF8B3
:1036200057000EE018982830022105F069FF8DF848
:10363000570006E005E004E003E001208DF85700A4
:10364000FFE79DF8570000280DD1FFE744F25440F2
:10365000C5F60200016821F0E041189AD2F89020E6
:103660001143016004E09DF857008DF85600FFE714
:10367000FFE7189800784006002850D5FFE7189813
:10368000D0F89C000028059019D0FFE70598B0F508
:10369000806F15D0FFE70598B0F5006F18D0FFE7F1
:1036A0000598B0F5406F1BD0FFE70598B0F5805F37
:1036B00017D0FFE70598B0F5A05F13D013E016E030
:1036C00018980830002105F037FE8DF857000EE0FD
:1036D00018982830022105F013FF8DF8570006E0F6
:1036E00005E004E003E001208DF85700FFE79DF8B6
:1036F000570000280DD1FFE744F25840C5F60200FC
:10370000016821F4E051189AD2F89C20114301601D
:1037100004E09DF857008DF85600FFE7FFE7189882
:1037200000780006002850D5FFE71898D0F8A000D0
:103730000028049019D0FFE70498B0F5005F15D079
:10374000FFE70498B0F5804F18D0FFE70498B0F574
:10375000C04F1BD0FFE70498B0F5004F17D0FFE72C
:103760000498B0F5204F13D013E016E018980830F5
:10377000002105F0E1FD8DF857000EE01898283083
:10378000022105F0BDFE8DF8570006E005E004E0DB
:1037900003E001208DF85700FFE79DF8570000284F
:1037A0000DD1FFE744F25840C5F60200016821F44C
:1037B0006041189AD2F8A0201143016004E09DF8FE
:1037C00057008DF85600FFE7FFE7189800780007CC
:1037D000002821D5FFE71898D0F88400B0F5805F65
:1037E0000DD1FFE718982830022105F089FE002846
:1037F00004D0FFE701208DF85600FFE7FFE744F211
:103800005440C5F60200016821F44051189AD2F8DC
:10381000842011430160FFE718980078C006002853
:1038200021D5FFE71898D0F89800B0F5807F0DD12A
:10383000FFE718982830022105F062FE002804D026
:10384000FFE701208DF85600FFE7FFE744F25840FC
:10385000C5F60200016821F44071189AD2F8982048
:1038600011430160FFE718988078000700283ED5D3
:10387000FFE71898D0F8A400002803900AD0FFE7CB
:103880000398B0F5803F0DD0FFE70398B0F5003FF7
:1038900010D010E018980830002105F04DFD8DF88B
:1038A00057000CE018982830022105F029FE8DF809
:1038B000570004E003E001208DF85700FFE79DF872
:1038C000570000280DD1FFE744F25840C5F602002A
:1038D000016821F44031189AD2F8A4201143016004
:1038E00004E09DF857008DF85600FFE7FFE71898B1
:1038F00080784007002840D5FFE71898D0F8880066
:10390000B0F5801F02900AD0FFE70298B0F5001FC3
:103910000ED0FFE70298B0F5401F11D011E044F23D
:103920002C40C5F60200016841F4003101600CE052
:1039300018982830012105F0E3FD8DF8570004E0C8
:1039400003E001208DF85700FFE79DF8570000289D
:103950000DD1FFE744F25440C5F60200016821F49E
:103960004011189AD2F888201143016004E09DF8B4
:1039700057008DF85600FFE7FFE718988078C007DA
:10398000002837D0FFE71898006D0028019005D077
:10399000FFE70198B0F5803F09D010E044F22C40D9
:1039A000C5F60200016841F4003101600BE018988F
:1039B0000830022105F0C0FC8DF8570003E001201B
:1039C0008DF85700FFE79DF8570000280CD1FFE75E
:1039D00044F24C40C5F60200016821F48031189A87
:1039E000126D1143016004E09DF857008DF85600F8
:1039F000FFE7FFE71898C078800600280DD5FFE79D
:103A000018982830022105F07BFD002804D0FFE73C
:103A100001208DF85600FFE7FFE7189880788007AF
:103A200000283ED5FFE71898D0F8800000280090C5
:103A30001AD0FFE70098B0F5807F0AD0FFE7009822
:103A4000B0F5007F0ED0FFE70098B0F5407F0AD0B8
:103A50000BE044F22C40C5F60200016841F400314D
:103A6000016006E005E004E003E001208DF8570066
:103A7000FFE79DF8570000280DD1FFE744F25440BE
:103A8000C5F60200016821F44071189AD2F880202E
:103A90001143016004E09DF857008DF85600FFE7E0
:103AA000FFE718988078C00600280CD5FFE744F29D
:103AB0005040C5F60200016821F00041189A526F8B
:103AC00011430160FFE71898C078C00600280DD5A3
:103AD000FFE744F21040C5F60200016821F480417E
:103AE000189AD2F8B82011430160FFE7189880783F
:103AF000800600280CD5FFE744F25040C5F60200CE
:103B0000016821F08071189AD26E11430160FFE7BD
:103B10001898C0784006002811D5FFE7FFE744F267
:103B20001040C5F60200016821F4004101601899B7
:103B3000D1F8BC10026811430160FFE7FFE7189855
:103B4000C078000600280CD5FFE744F24C40C5F6CB
:103B50000200016821F04051189A526D1143016032
:103B6000FFE718988078000600280DD5FFE744F29B
:103B70005440C5F60200016821F44001189AD2F8B9
:103B80008C2011430160FFE718980079C0070028D6
:103B900013D0FFE718980830002105F0CDFB8DF811
:103BA00057009DF85700002801D1FFE704E09DF879
:103BB00057008DF85600FFE7FFE718980079800757
:103BC000002813D5FFE718980830012105F0B4FB51
:103BD0008DF857009DF85700002801D1FFE704E059
:103BE0009DF857008DF85600FFE7FFE71898007919
:103BF0004007002813D5FFE718980830022105F088
:103C00009BFB8DF857009DF85700002801D1FFE776
:103C100004E09DF857008DF85600FFE7FFE718987D
:103C200000790007002813D5FFE7189828300021F5
:103C300005F066FC8DF857009DF85700002801D16B
:103C4000FFE704E09DF857008DF85600FFE7FFE717
:103C500018980079C006002813D5FFE71898283077
:103C6000012105F04DFC8DF857009DF85700002804
:103C700001D1FFE704E09DF857008DF85600FFE7FB
:103C8000FFE7189800798006002813D5FFE71898F9
:103C90002830022105F034FC8DF857009DF85700BC
:103CA000002801D1FFE704E09DF857008DF8560089
:103CB000FFE7FFE79DF85600002804D1FFE700204A
:103CC0008DF8670003E001208DF86700FFE79DF89D
:103CD00067001AB080BD000080B586B004900391E3
:103CE0000498002804D1FFE701208DF817003CE27A
:103CF000039842F20001C5F20021096801F00F01AA
:103D0000884216D9FFE742F20000C5F200200168A0
:103D100021F00F01039A11430160006800F00F00C9
:103D20000399884204D0FFE701208DF817001CE2B8
:103D3000FFE7049800784007002819D5FFE70498AA
:103D4000006944F21841C5F60201096801F07001EA
:103D500088420CD9FFE744F21840C5F6020001681A
:103D600021F07001049A126911430160FFE7FFE737
:103D7000049800780007002819D5FFE704984069E7
:103D800044F21C41C5F60201096801F07001884245
:103D90000CD9FFE744F21C40C5F60200016821F08F
:103DA0007001049A526911430160FFE7FFE704982C
:103DB0000078C006002819D5FFE70498806944F20E
:103DC0001C41C5F60201096801F4E06188420CD982
:103DD000FFE744F21C40C5F60200016821F4E061EF
:103DE000049A926911430160FFE7FFE704980078A5
:103DF0008006002819D5FFE70498C06944F22041E5
:103E0000C5F60201096801F0700188420CD9FFE78C
:103E100044F22040C5F60200016821F07001049AC6
:103E2000D26911430160FFE7FFE70498007880073B
:103E3000002819D5FFE70498C06844F21841C5F678
:103E40000201096801F00F0188420CD9FFE744F232
:103E50001840C5F60200016821F00F01049AD268EB
:103E600011430160FFE7FFE704980078C0070028CE
:103E700000F08C80FFE744F21840C5F602000168AC
:103E800021F47061049A92681143016004984068BB
:103E9000022811D1FFE744F20040C5F60200006895
:103EA00000F400300021B1EB504F04D1FFE70120B6
:103EB0008DF8170059E13EE004984068032811D1BD
:103EC000FFE744F20040C5F60200006800F0007011
:103ED0000021B1EB506F04D1FFE701208DF81700EE
:103EE00043E127E004984068012811D1FFE744F23C
:103EF0000040C5F60200006800F480700021B1EBBC
:103F0000102F04D1FFE701208DF817002DE110E0FC
:103F100044F20040C5F60200006800F004000021F1
:103F2000B1EB900F04D1FFE701208DF817001CE1E1
:103F3000FFE7FFE7FFE744F21040C5F60200016823
:103F400021F00701049A526811430160FDF7D8FE81
:103F50000190FFE744F21040C5F60200006800F04F
:103F6000380004994968B0EBC10F0ED0FFE7FDF7A8
:103F7000C7FE0199401A41F28931884204D3FFE714
:103F800003208DF81700F0E0E4E7FFE704980078DD
:103F90008007002819D5FFE70498C06844F218414B
:103FA000C5F60201096801F00F0188420CD2FFE753
:103FB00044F21840C5F60200016821F00F01049A8E
:103FC000D26811430160FFE7FFE7039842F2000166
:103FD000C5F20021096801F00F01884216D2FFE7FF
:103FE00042F20000C5F20020016821F00F01039A9F
:103FF00011430160006800F00F000399884204D06B
:10400000FFE701208DF81700AFE0FFE70498007884
:104010004007002819D5FFE70498006944F21841C9
:10402000C5F60201096801F0700188420CD2FFE771
:1040300044F21840C5F60200016821F07001049AAC
:10404000126911430160FFE7FFE704980078000759
:10405000002819D5FFE70498406944F21C41C5F6D1
:104060000201096801F0700188420CD2FFE744F2B6
:104070001C40C5F60200016821F07001049A5269E3
:1040800011430160FFE7FFE704980078C0060028AD
:1040900019D5FFE70498806944F21C41C5F6020176
:1040A000096801F4E06188420CD2FFE744F21C4049
:1040B000C5F60200016821F4E061049A9269114397
:1040C0000160FFE7FFE7049800788006002819D513
:1040D000FFE70498C06944F22041C5F6020109686F
:1040E00001F0700188420CD2FFE744F22040C5F68F
:1040F0000200016821F07001049AD2691143016045
:10410000FFE7FFE700F0D0F844F21841C5F60201DE
:104110000A68C2F303224DF60473C0F600039A5CEA
:1041200002F01F02D04000900098096801F00F01D2
:10413000595C01F01F01C84040F22001C2F2004169
:104140000860009840F21C01C2F20041086040F291
:10415000D000C2F200400068FEF7FAF88DF80B00BC
:104160009DF80B008DF81700FFE79DF8170006B0CB
:1041700080BD00000000000082B001900091019815
:104180003F21016044F21040C5F60200006800F0D3
:1041900007000199486044F21840C5F60200016822
:1041A00001F47061019A9160016801F00F01019AB8
:1041B000D160006800F070000199086144F21C4071
:1041C000C5F60200016801F07001019A51610068B2
:1041D00000F4E0600199886144F22040C5F60200D5
:1041E000006800F070000199C86142F20000C5F259
:1041F0000020006800F00F000099086002B07047CE
:1042000080B582B000F050F844F21841C5F60201C2
:104210000A68C2F303224DF60473C0F600039A5CE9
:1042200002F01F02D04001900198096801F00F01CF
:10423000595C01F01F01C84040F22001C2F2004168
:104240000860019840F21C02C2F200421060086847
:1042500002B080BD0000000080B5FFF7D1FF44F23E
:104260001C41C5F602010968C1F302114DF6047242
:10427000C0F60002515C01F01F01C84080BD000083
:1042800080B5FFF7BDFF44F21C41C5F60201096885
:10429000C1F302214DF60472C0F60002515C01F038
:1042A0001F01C84080BD00008AB044F21040C5F62E
:1042B0000200006800F0380001461828019100F261
:1042C0006C810199DFE811F0190069016901690148
:1042D00069016901690169013B00690169016901BD
:1042E00069016901690169014100690169016901A7
:1042F0006901690169016901470044F20040C5F69E
:104300000200006800F020000021B1EB501F0FD028
:10431000FFE744F20040C5F602000068C0F3C100A8
:1043200049F20001C0F2D03121FA00F0029005E01C
:1043300049F20000C0F2D0300290FFE733E140F6CE
:104340000010C0F23D0002902DE147F64000C0F29F
:104350007D10029027E144F22840C5F60200016872
:1043600001F0030108910068C0F30510079044F2C2
:104370002C40C5F60200006800F001000690069887
:1043800044F23441C5F60201096889B2C9084843BC
:1043900000EE100AB8EE400A8DED040A07980028D6
:1043A00000F0F780FFE708980028009009D0FFE7A9
:1043B000009801286AD0FFE70098022800F08A8060
:1043C000ACE044F20040C5F60200006800F02000B6
:1043D0000021B1EB501F34D0FFE744F20040C5F696
:1043E00002000068C0F3C10049F20001C0F2D03100
:1043F00021FA00F005909DED050AB8EE400A9DED0A
:10440000071AB8EE411A80EE010A44F23040C5F6B0
:10441000020000686FF35F2001EE100AB8EE411A47
:104420009DED042A9FED623A82EE032A31EE021AD4
:10443000B7EE002A31EE021A20EE010A8DED030AD2
:1044400023E09DED070AB8EE400A9FED5B1A81EE6E
:10445000000A44F23040C5F6020000686FF35F20A6
:1044600001EE100AB8EE411A9DED042A9FED503A74
:1044700082EE032A31EE021AB7EE002A31EE021A5A
:1044800020EE010A8DED030AFFE76BE09DED070AC0
:10449000B8EE400A9FED471A81EE000A44F2304020
:1044A000C5F6020000686FF35F2001EE100AB8EE57
:1044B000411A9DED042A9FED3E3A82EE032A31EE29
:1044C000021AB7EE002A31EE021A20EE010A8DED33
:1044D000030A47E09DED070AB8EE400A9FED331A44
:1044E00081EE000A44F23040C5F6020000686FF326
:1044F0005F2001EE100AB8EE411A9DED042A9FEDEF
:104500002C3A82EE032A31EE021AB7EE002A31EE7F
:10451000021A20EE010A8DED030A23E09DED070A41
:10452000B8EE400A9FED231A81EE000A44F23040B3
:10453000C5F6020000686FF35F2001EE100AB8EEC6
:10454000411A9DED042A9FED1A3A82EE032A31EEBC
:10455000021AB7EE002A31EE021A20EE010A8DEDA2
:10456000030AFFE744F23040C5F60200006880B25B
:10457000012101EB502009909DED030A9DED091AE0
:10458000B8EE411A80EE010ABCEEC00A8DED020AB7
:1045900002E000200290FFE705E040F60010C0F2C4
:1045A0003D000290FFE702980AB0704720BCBE4B66
:1045B000000000460024744A0024744C00000000EF
:1045C00080B58CB00A900A98002805D1FFE7012039
:1045D0008DF82F0000F0A5BD0A980078C0070028CC
:1045E00000F0BC80FFE744F21040C5F6020000680E
:1045F00000F03800069044F22840C5F6020000683A
:104600000590069810280AD0FFE7069818281DD1B3
:10461000FFE7059800F00300022817D1FFE744F2F6
:104620000040C5F60200006800F400300021B1EB44
:10463000504F0AD0FFE70A984068002805D1FFE7ED
:1046400001208DF82F0000F06CBD86E0FFE70A988E
:104650004068B0F5803F09D1FFE744F20040C5F65D
:104660000200016841F48031016033E00A9840683B
:1046700000280DD1FFE744F20040C5F602000168B2
:1046800021F480310160016821F48021016020E083
:104690000A984068B0F5A02F0DD1FFE744F2004022
:1046A000C5F60200016841F480210160016841F40F
:1046B000803101600CE044F20040C5F60200016860
:1046C00021F480310160016821F480210160FFE75D
:1046D000FFE7FFE7FFE70A98406800281ED0FFE7E2
:1046E000FDF70EFB0990FFE744F20040C5F602001B
:1046F000006800F400300021B1EB504F0DD1FFE70E
:10470000FDF7FEFA0999401A652805D3FFE7032053
:104710008DF82F0000F005BDE6E71DE0FDF7F0FA8B
:104720000990FFE744F20040C5F60200006800F47B
:1047300000300021B1EB504F0DD0FFE7FDF7E0FA5C
:104740000999401A652805D3FFE703208DF82F004B
:1047500000F0E7BCE6E7FFE7FFE7FFE70A9800782D
:104760008007002840F11881FFE744F21040C5F6A9
:104770000200006800F03800049044F22840C5F6BA
:10478000020000680390049800280AD0FFE704980C
:10479000182879D1FFE79DF80C008007002873D115
:1047A000FFE744F20040C5F60200006800F0040094
:1047B0000021B1EB900F0AD0FFE70A98C0680028EB
:1047C00005D1FFE701208DF82F0000F0AABC44F2CC
:1047D0000040C5F60200016821F019010A9AD2686A
:1047E00011430160FDF78CFA0990FFE744F20040A5
:1047F000C5F60200006800F004000021B1EB900F44
:104800000DD1FFE7FDF77CFA0999401A032805D37B
:10481000FFE703208DF82F0000F083BCE6E7FFE7F9
:10482000FDF766FA41F2030188421DD8FFE70A98B6
:10483000006940280AD1FFE744F20440C5F60200AF
:104840000168202262F3113101600CE044F204405F
:10485000C5F60200016821F47C310A9A126941EA26
:1048600002310160FFE70CE044F20440C5F60200AB
:10487000016821F0FE410A9A126941EA0261016071
:10488000FFE7FFE7FFE786E00A98C06800285CD0F2
:10489000FFE744F20040C5F60200016821F019016B
:1048A0000A9AD26811430160FDF72AFA0990FFE7DE
:1048B00044F20040C5F60200006800F00400002148
:1048C000B1EB900F0DD1FFE7FDF71AFA0999401AE5
:1048D000032805D3FFE703208DF82F0000F021BC4B
:1048E000E6E7FFE7FDF704FA41F2030188421DD82D
:1048F000FFE70A98006940280AD1FFE744F2044024
:10490000C5F602000168202262F3113101600CE05B
:1049100044F20440C5F60200016821F47C310A9A91
:10492000126941EA02310160FFE70CE044F2044001
:10493000C5F60200016821F0FE410A9A126941EAB7
:1049400002610160FFE7FFE724E044F20040C5F6A2
:104950000200016821F001010160FDF7D1F9099021
:10496000FFE744F20040C5F60200006800F00400D2
:104970000021B1EB900F0CD0FFE7FDF7C1F90999C9
:10498000401A032804D3FFE703208DF82F00C8E363
:10499000E7E7FFE7FFE7FFE70A980078C00600288F
:1049A00040F1EB80FFE744F21040C5F602000068DA
:1049B00000F03800029044F22840C5F6020000687A
:1049C0000190029808280AD0FFE70298182850D1D1
:1049D000FFE7019800F0030001284AD1FFE744F205
:1049E0000040C5F60200006800F480700021B1EBC1
:1049F000102F09D0FFE70A98C069802804D0FFE78C
:104A000001208DF82F008CE3FFE7FDF771F941F2EB
:104A1000030188421DD8FFE70A98006A20280AD1BE
:104A2000FFE744F20440C5F602000168102262F379
:104A30009E6101600CE044F20440C5F6020001688A
:104A400021F0F8410A9A126A41EA82610160FFE7A7
:104A50000CE044F20C40C5F60200016821F07C51E4
:104A60000A9A126A41EA02610160FFE7FFE7FFE785
:104A700082E00A98C069002858D0FFE744F200405D
:104A8000C5F60200016841F080010160FDF738F9C8
:104A90000990FFE744F20040C5F60200006800F408
:104AA00080700021B1EB102F0CD1FFE7FDF728F942
:104AB0000999401A032804D3FFE703208DF82F003B
:104AC0002FE3E7E7FFE7FDF713F941F2030188421F
:104AD0001DD8FFE70A98006A20280AD1FFE744F2B0
:104AE0000440C5F602000168102262F39E61016075
:104AF0000CE044F20440C5F60200016821F0F841E0
:104B00000A9A126A41EA82610160FFE70CE044F20E
:104B10000C40C5F60200016821F07C510A9A126A25
:104B200041EA02610160FFE7FFE724E044F2004050
:104B3000C5F60200016821F080010160FDF7E0F890
:104B40000990FFE744F20040C5F60200006800F457
:104B500080700021B1EB102F0CD0FFE7FDF7D0F8EB
:104B60000999401A032804D3FFE703208DF82F008A
:104B7000D7E2E7E7FFE7FFE7FFE70A9800780007DB
:104B8000002850D5FFE70A984069002825D0FFE7A4
:104B900044F27440C5F60200016841F00101016071
:104BA000FDF7AEF80990FFE744F27440C5F6020045
:104BB000006800F002000021B1EB500F0CD1FFE7BC
:104BC000FDF79EF80999401A032804D3FFE7032054
:104BD0008DF82F00A5E2E7E724E044F27440C5F623
:104BE0000200016821F001010160FDF789F80990D8
:104BF000FFE744F27440C5F60200006800F00200CE
:104C00000021B1EB500F0CD0FFE7FDF779F80999BF
:104C1000401A032804D3FFE703208DF82F0080E219
:104C2000E7E7FFE7FFE70A9800788006002850D5FD
:104C3000FFE70A988069002825D0FFE744F200408A
:104C4000C5F60200016841F480510160FDF758F893
:104C50000990FFE744F20040C5F60200006800F446
:104C600000500021B1EB503F0CD1FFE7FDF748F8B1
:104C70000999401A032804D3FFE703208DF82F0079
:104C80004FE2E7E724E044F20040C5F60200016885
:104C900021F480510160FDF733F80990FFE744F2F9
:104CA0000040C5F60200006800F400500021B1EB9E
:104CB000503F0CD0FFE7FDF723F80999401A03286D
:104CC00004D3FFE703208DF82F002AE2E7E7FFE790
:104CD000FFE70A9800784007002840F1A980FFE725
:104CE00044F60000C5F60200016841F480710160DD
:104CF000FDF706F80990FFE744F60000C5F602004C
:104D00000068C00500280CD4FFE7FCF7F9FF0999FB
:104D1000401A652804D3FFE703208DF82F0000E236
:104D2000EAE7FFE70A988068012809D1FFE744F223
:104D30007040C5F60200016841F00101016032E0F7
:104D40000A98806800280DD1FFE744F27040C5F64C
:104D50000200016821F001010160016821F00401F5
:104D600001601FE00A98806805280DD1FFE744F232
:104D70007040C5F60200016841F00401016001685D
:104D800041F0010101600CE044F27040C5F6020000
:104D9000016821F001010160016821F00401016056
:104DA000FFE7FFE7FFE7FFE70A98806800281FD0CA
:104DB000FFE7FCF7A5FF0990FFE744F27040C5F656
:104DC0000200006800F002000021B1EB500F0ED18C
:104DD000FFE7FCF795FF0999401A41F289318842B3
:104DE00004D3FFE703208DF82F009AE1E5E71EE0EA
:104DF000FCF786FF0990FFE744F27040C5F6020019
:104E0000006800F002000021B1EB500F0ED0FFE768
:104E1000FCF776FF0999401A41F28931884204D3A0
:104E2000FFE703208DF82F007BE1E5E7FFE7FFE7D1
:104E30000A98406A002800F07081FFE744F21040B1
:104E4000C5F60200006800F03800182800F0DE8087
:104E5000FFE70A98406A022840F0B280FFE744F278
:104E60000040C5F60200016821F080710160FCF786
:104E700047FF0990FFE744F20040C5F602000068D2
:104E800000F000700021B1EB506F0CD0FFE7FCF791
:104E900037FF0999401A032804D3FFE703208DF850
:104EA0002F003EE1E7E7FFE744F22840C5F60200A5
:104EB000016840F2F33291430A9A936AD26A43EA54
:104EC0000212114301600A98016B426B836BC06B45
:104ED00001396FF35F214FF6006CCFF6FF7C0CEBCE
:104EE000422292B211440022CFF6FF7202EB03423B
:104EF00002F4FE0211444FF07F4202EB006000F02A
:104F0000FE40084444F23041C5F602010860FFE764
:104F100044F22C40C5F60200016821F00101016055
:104F200044F23441C5F602010A684FF6F8739A4319
:104F30000A9B9B6C42EAC3020A60016821F00C01E3
:104F40000A9A126C11430160016821F002010A9A69
:104F5000526C11430160016841F4803101600168C5
:104F600041F400310160016841F480210160016871
:104F700041F00101016044F20040C5F60200016801
:104F800041F080710160FCF7BBFE0990FFE744F23D
:104F90000040C5F60200006800F000700021B1EB8F
:104FA000506F0CD1FFE7FCF7ABFE0999401A0328BC
:104FB00004D3FFE703208DF82F00B2E0E7E724E0F9
:104FC00044F20040C5F60200016821F080710160E2
:104FD000FCF796FE0990FFE744F20040C5F6020098
:104FE000006800F000700021B1EB506F0CD0FFE7BB
:104FF000FCF786FE0999401A032804D3FFE7032033
:105000008DF82F008DE0E7E7FFE785E044F22840C8
:10501000C5F602000068089044F23040C5F6020070
:10502000006807900A98406A012837D0FFE708987F
:1050300000F003000A99896A88422FD1FFE7089897
:1050400000F47C700A99C96AB1EB101F26D1FFE702
:1050500007986FF35F200A99096B013988421DD1C7
:10506000FFE7BDF81C000A99496B0139B1EB502FDD
:1050700014D1FFE7079800F4FE000A99896B013903
:10508000B1EB104F0AD1FFE7079800F0FE400A99F4
:10509000C96B0139B1EB106F04D0FFE701208DF827
:1050A0002F003EE044F23440C5F60200006880B2B2
:1050B000C00808900A98806C089988422AD0FFE7B7
:1050C00044F22C40C5F60200016821F001010160A4
:1050D000FCF716FE0990FFE7FCF712FE0999401A4B
:1050E000002801D1FFE7F7E744F23440C5F602009B
:1050F00001684FF6F87291430A9A926C41EAC20134
:10510000016044F22C40C5F60200016841F0010143
:105110000160FFE7FFE7FFE7FFE700208DF82F00C2
:10512000FFE79DF82F000CB080BD000000000000DC
:1051300081B0009001B0704781B0009001B070471D
:1051400081B0009001B0704784B0029001910020BE
:105150000090FFE7029890F83C00012804D1FFE797
:1051600002208DF80F0074E00298012180F83C10B5
:10517000FFE7FFE7009820F0FF000199C9680843A6
:105180000090009820F440700199896808430090CD
:10519000009820F4806001994968084300900098C5
:1051A00020F400600199096808430090009820F4F9
:1051B00080500199096908430090009820F400503C
:1051C0000199496908430090009820F480400199B2
:1051D000896A08430090009820F470200199896939
:1051E00040EA01400090029800680021C4F20101E9
:1051F000884209D0FFE70298006840F20041C4F2FB
:105200000101884217D1FFE7009820F4700001994E
:10521000496A40EA01500090009820F0807001999E
:10522000C96908430090009820F000700199096A4C
:1052300008430090FFE70098029909684864FFE777
:105240000298002180F83C10FFE700208DF80F0045
:10525000FFE79DF80F0004B0704700000000000059
:1052600085B003900291FFE7039890F83C00012875
:1052700004D1FFE702208DF8130099E00398012183
:1052800080F83C10FFE7FFE70398022180F83D100B
:105290000398006840680190039800688068009057
:1052A000039800680021C4F20101884209D0FFE799
:1052B0000398006840F20041C4F2010188420AD11B
:1052C000FFE7019820F4700001900298406801996E
:1052D00008430190FFE7019820F0700001900298C8
:1052E0000068019908430190019803990968486092
:1052F000039800680021C4F2010188423CD0FFE716
:1053000003980068B0F1804F36D0FFE7039800683B
:1053100040F20041C4F2000188422DD0FFE703981B
:10532000006840F60001C4F20001884224D0FFE783
:105330000398006840F60041C4F2000188421BD087
:10534000FFE70398006840F20041C4F2010188427F
:1053500012D0FFE70398006841F60001C4F2000193
:10536000884209D0FFE70398006844F20001C4F2C4
:10537000010188420ED1FFE7009820F080000090E4
:105380000298806800990843009000980399096882
:105390008860FFE70398012180F83D10FFE703983C
:1053A000002180F83C10FFE700208DF81300FFE794
:1053B0009DF8130005B0704780B584B00290029844
:1053C000002804D1FFE701208DF80F0049E0029882
:1053D00090F83D00002808D1FFE70298002180F8EE
:1053E0003C10029800F044F8FFE70298022180F890
:1053F0003D10029850F8041B01900846019904F0F2
:10540000BFFB0298012180F84810FFE702980121B4
:1054100080F83E10029880F83F10029880F8401003
:10542000029880F84110029880F84210029880F8A3
:105430004310FFE7FFE70298012180F8441002982B
:1054400080F84510029880F84610029880F84710BE
:10545000FFE70298012180F83D1000208DF80F0031
:10546000FFE79DF80F0004B080BD000000000000C1
:1054700080B58AB0099000200890079006900590AA
:1054800004900998006844F60001C4F201018842C2
:105490003CD1FFE7FFE744F2F040C5F602000168A7
:1054A00041F480210160006800F48020039003989B
:1054B000FFE7FFE744F2E040C5F60200016841F073
:1054C00002010160006800F0020002900298FFE70C
:1054D0004FF4007004900220059000200690079081
:1054E0000121089140F20041C5F6020104AA019091
:1054F00008461146FCF7E0F9762006210090019A53
:10550000FDF726F80098FDF717F8FFE70AB080BD11
:1055100083B00190019890F83D00012804D0FFE786
:1055200001208DF80B0071E00198022180F83D10F8
:1055300001980068C16841F00101C16001980068EC
:105540000021C4F2010188423CD0FFE701980068C5
:10555000B0F1804F36D0FFE70198006840F200417B
:10556000C4F2000188422DD0FFE70198006840F6A0
:105570000001C4F20001884224D0FFE701980068CE
:1055800040F60041C4F2000188421BD0FFE70198B9
:10559000006840F20041C4F20101884212D0FFE7E6
:1055A0000198006841F60001C4F20001884209D068
:1055B000FFE70198006844F20001C4F2010188424B
:1055C00019D1FFE70198006880680721C0F2010146
:1055D00008400090009806280CD0FFE70098B0F52E
:1055E000803F07D0FFE701980068016841F00101A2
:1055F0000160FFE706E001980068016841F00101E1
:105600000160FFE700208DF80B00FFE79DF80B001D
:1056100003B070470000000080B588B00690059187
:105620000698002804D1FFE701208DF81F008EE0C6
:10563000069890F83D00002808D1FFE70698002161
:1056400080F83C10069800F087F8FFE706980221E2
:1056500080F83D100698006881684BF6F872CFF626
:10566000FE7211408160069850F8041B01900846B4
:10567000019904F085FA06980068806804900698FD
:1056800000688069039006980068006A0290059897
:105690000068049908430490039840F2033188435A
:1056A000039005988168806941EA002003990843C6
:1056B0000390039840F60C418843039003984FF2FF
:1056C000F001884303900598C168C06941EA002051
:1056D00003990843039005980169006A090141EAAA
:1056E0000030039908430390029820F022000290B2
:1056F000029820F08800029005984168406941EACC
:10570000001002990843029004980699096888607D
:1057100003980699096888610298069909680862E1
:105720000698012180F84810069880F83E100698E7
:1057300080F83F10069880F84410069880F84510CD
:10574000069880F83D1000208DF81F00FFE79DF8B7
:105750001F0008B080BD000080B594B013900020F9
:105760001290119010900F900E9013980068B0F165
:10577000804F55D1FFE7FFE744F2E840C5F602004D
:10578000016841F001010160006800F001000D9026
:105790000D98FFE7FFE744F2E040C5F6020001681C
:1057A00041F001010160006800F001000C900C98CC
:1057B000FFE7FFE744F2E040C5F60200016841F070
:1057C00002010160006800F002000B900B98FFE7F7
:1057D00020200E9002200F900021109111910122A3
:1057E00012920023C5F602030DF1380C04901846FE
:1057F000039161460292CDF804C0FCF75DF80820E1
:105800000E9004980F90039910911191029A1292A0
:1058100040F20040C5F602000199FCF74DF8A6E001
:105820001398006840F20041C4F2000188422DD173
:10583000FFE7FFE744F2E840C5F60200016841F0E7
:1058400002010160006800F002000A900A98FFE778
:10585000FFE744F2E040C5F60200016841F00101B3
:105860000160006800F0010009900998FFE7C0207E
:105870000E9002200F9000211091119112900020A3
:10588000C5F602000EA9FCF717F86FE01398006840
:1058900040F60001C4F2000188422FD1FFE7FFE784
:1058A00044F2E840C5F60200016841F004010160DD
:1058B000006800F0040008900898FFE7FFE744F252
:1058C000E040C5F60200016841F00801016000688F
:1058D00000F0080007900798FFE74FF440500E9043
:1058E00002200F90002110911191129040F600407B
:1058F000C5F602000EA9FBF7DFFF36E0139800683B
:1059000040F60041C4F2000188422DD1FFE7FFE7D5
:1059100044F2E840C5F60200016841F00801016068
:10592000006800F0080006900698FFE7FFE744F2E1
:10593000E040C5F60200016841F001010160006825
:1059400000F0010005900598FFE703200E9002206B
:105950000F9000211091119112900020C5F60200C5
:105960000EA9FBF7A9FFFFE7FFE7FFE7FFE714B08A
:1059700080BD00000000000080B586B00490039157
:10598000049890F83E008DF80B00049890F83F00C2
:105990008DF80A00049890F844008DF809000498E6
:1059A00090F845008DF808000398002817D1FFE70C
:1059B0009DF80B00012805D1FFE79DF8090001289B
:1059C00004D0FFE701208DF817007AE00498022147
:1059D00080F83E10049880F84410FFE742E00398F6
:1059E000042817D1FFE79DF80A00012805D1FFE739
:1059F0009DF80800012804D0FFE701208DF817006A
:105A00005FE00498022180F83F10049880F8451068
:105A1000FFE726E09DF80B0001280FD1FFE79DF876
:105A20000A0001280AD1FFE79DF80900012805D1E5
:105A3000FFE79DF80800012804D0FFE701208DF85A
:105A400017003EE00498022180F83E10049880F888
:105A50003F10049880F84410049880F84510FFE740
:105A6000FFE7FFE703980028019004D0FFE70198C3
:105A7000042807D00DE0049800680021012204F0FA
:105A80005BF914E0049800680421012204F054F941
:105A90000DE00498006800210122009204F04CF906
:105AA000049800680421009A04F046F9FFE704987E
:105AB0000068016841F00101016000208DF81700C5
:105AC000FFE79DF8170006B080BD00000000000051
:105AD00080B582B00190019840F21051C2F20041AD
