:020000040800F2
:10000000B84C0020E90200082D3800083B2E0008FB
:100010002B340008C7050008CD450008000000008B
:10002000000000000000000000000000290200089D
:1000300017090008000000008502000819390008AF
:100040000303000803030008030300080303000878
:100050000303000803030008030300080303000868
:10006000030300080303000803030008ED0700086A
:10007000FD0700080303000803030008030300084A
:100080000303000803030008030300080303000838
:100090000303000803030008030300080303000828
:1000A0000303000803030008030300080303000818
:1000B0000303000803030008030300080303000808
:1000C00003030008030300080303000803030008F8
:1000D000030300080303000803030008A944000801
:1000E00003030008030300080303000803030008D8
:1000F00003030008030300080303000803030008C8
:1001000003030008030300080303000803030008B7
:1001100003030008653D0008193A000803030008BE
:100120000303000803030008030300080303000897
:1001300003030008000000000000000003030008A3
:100140000303000803030008030300080303000877
:100150000303000803030008030300080303000867
:100160000303000803030008030300080303000857
:100170000303000803030008000000000000000063
:10018000030300080303000800F002F800F03CF845
:100190000AA090E8000C82448344AAF10107DA45E2
:1001A00001D100F031F8AFF2090EBAE80F0013F0F8
:1001B000010F18BFFB1A43F001031847C055000098
:1001C000E0550000103A24BF78C878C1FAD8520729
:1001D00024BF30C830C144BF04680C6070470000C1
:1001E0000023002400250026103A28BF78C1FBD840
:1001F000520728BF30C148BF0B6070471FB505F0DC
:100200006FFA1FBD10B510BD00F0A6F91146FFF73B
:10021000F5FF04F0FDF900F0C4F903B4FFF7F2FFB5
:1002200003BC00F0C9F900002C4B19680868B0E85D
:10023000F04F80F30988BFF36F8F4FF0000080F319
:10024000118870470000000008480068006880F3CB
:1002500008884FF0000080F3148862B661B6BFF3DF
:100260004F8FBFF36F8F00DF00BF00BF08ED00E0CE
:10027000DFF80C00016841F470010160704700BFB5
:1002800088ED00E0EFF30980BFF36F8F134B1A681E
:100290001EF0100F08BF20ED108A20E9F04F10600B
:1002A00009B44FF0500080F31188BFF34F8FBFF3B4
:1002B0006F8F04F065FF4FF0000080F3118809BCD8
:1002C00019680868B0E8F04F1EF0100F08BFB0ECD6
:1002D000108A80F30988BFF36F8F70473C000020BD
:1002E000EFF3058070470000094880470948004740
:1002F000FEE7FEE7FEE7FEE7FEE7FEE7FEE7FEE7D6
:10030000FEE7FEE704480549054A064B7047000032
:10031000053A000889010008B8460020B84C0020C2
:10032000B8480020B848002053EA020C00F0698069
:100330002DE9F04B4FF00006002B1FBFB3FA83F5F9
:1003400003FA05F424FA05F65E4012BF1643B2FA2A
:1003500082F502FA05F4C5F120051EBF22FA05FC5C
:1003600044EA0C04203556EA044C4FEA144418BF02
:10037000641C4FF000084FF00009904271EB030C31
:1003800039D3002919BFB1FA81F701FA07F6B0FA9B
:1003900080F700FA07F6C7F120071EBF20FA07FC16
:1003A00046EA0C062037B6FBF4FCA7EB0507103F26
:1003B00007F01F0BCBF120060CFA0BFB2CFA06F60C
:1003C00044BFB3460026202FA4BF5E464FF0000B6B
:1003D0005BEA060C08BF4FF0010B19EB0B09ABFBF6
:1003E000027C48EB0608C01B06FB02CC0BFB03CCCF
:1003F00071EB0C01C1E70B46024641464846BDE899
:10040000F08B13B54FF000004FF00001AFF3008008
:10041000BDE81C407047032A40F2308010F0030C06
:1004200000F0158011F8013BBCF1020F624498BF47
:1004300011F801CB00F8013B38BF11F8013BA2F1E4
:10044000040298BF00F801CB38BF00F8013B11F05F
:10045000030300F02580083AC0F0088051F8043BFF
:10046000083A51F804CBA0E80810F5E7121D5CBF6C
:1004700051F8043B40F8043BAFF30080D20724BF9F
:1004800011F8013B11F801CB48BF11F8012B24BF33
:1004900000F8013B00F801CB48BF00F8012B704782
:1004A00010B5203AC0F00B80B1E81850203AA0E80F
:1004B0001850B1E81850A0E81850BFF4F5AF5FEA43
:1004C000027C24BFB1E81850A0E8185044BF18C9F6
:1004D00018C0BDE810405FEA827C24BF51F8043B9D
:1004E00040F8043B08BF7047D20728BF31F8023BF1
:1004F00048BF11F8012B28BF20F8023B48BF00F885
:10050000012B70474FF0000200B513469446964603
:10051000203922BFA0E80C50A0E80C50B1F1200116
:10052000BFF4F7AF090728BFA0E80C5048BF0CC0C4
:100530005DF804EB890028BF40F8042B08BF704722
:1005400048BF20F8022B11F0804F18BF00F8012B94
:100550007047704770477047754600F029F8AE46FF
:1005600005006946534620F00700854618B020B5BF
:10057000FFF7C8FEBDE820404FF000064FF000072F
:100580004FF000084FF0000B21F00701AC46ACE83B
:10059000C009ACE8C009ACE8C009ACE8C0098D46A8
:1005A00070470446AFF300802046FFF736FE000098
:1005B000004870475446002001491820ABBEFEE7B2
:1005C00026000200704700BFFEE7000070B5064637
:1005D0000C46154620686060E069406A2060D4E9F6
:1005E0000001401AA060A068B0F5004F05DBA068CC
:1005F000A0F57F40FF38A06008E0A06810F5004F2C
:1006000004DC4FF6FF71A0680844A060A068301AAF
:10061000E060E068C0EB001020610222E1686069E0
:1006200002FB010060616069642802DD6420606192
:1006300006E0606910F1640F02DA6FF06300606138
:10064000D4E904100844A061A069B0F5757F03DD0A
:100650004FF47570A06105E0A06910F5757F01DAAF
:100660002A48A061012D0CD1B4F868100022606EF8
:1006700000F092FDB4F870100022E06E00F08CFDE6
:1006800042E0022D0CD1B4F868100122606E00F037
:1006900083FDB4F870100122E06E00F07DFD33E0C0
:1006A000A06946280CDDB4F868100022606E00F0E6
:1006B00073FDB4F870100122E06E00F06DFD23E0D0
:1006C000A06910F1460F0CDAB4F868100122606ED0
:1006D00000F062FDB4F870100022E06E00F05CFDE6
:1006E00012E0A06910F1460F0EDBA06946280BDC72
:1006F000B4F868100022606E00F04EFDB4F870107F
:100700000022E06E00F048FD70BD00002CFCFFFFF1
:1007100070B505460C4620686060E069406A20605C
:10072000D4E90001401AA060A068B0F5004F05DBD5
:10073000A068A0F57F40FF38A06008E0A06810F531
:10074000004F04DC4FF6FF71A0680844A060A06869
:10075000281AE060E068C0EB001020610222E16826
:10076000606902FB010060616069642802DD642049
:10077000606106E0606910F1640F02DA6FF06300F7
:100780006061D4E904100844A061A069B0F5757FE8
:1007900003DD4FF47570A06105E0A06910F5757F69
:1007A00001DA1048A061A069002801DB014600E0E1
:1007B00041420D4A12685163A069462806DDB4F82B
:1007C00068100022606E00F0E7FC09E0A06910F1FB
:1007D000460F05DAB4F868100122606E00F0DCFC08
:1007E00070BD00002CFCFFFF0407002010B502487C
:1007F00000F0F8F910BD0000DC07002010B5024839
:1008000000F0F0F910BD00003C0800200146087817
:1008100010381823B0FBF3F20848805CC865032A3F
:1008200005D908686FF30900001D886503E00868B2
:100830006FF309008865886D704700004057000815
:10084000014600208A6A8B69CBB932B1012A0DD0EA
:10085000022A03D0032A10D10EE000BFCB6A03F0B6
:100860008073B3F1807F00D1012007E0CB6AB3F140
:10087000C07F00D1012001E000E000BF34E08B69BF
:10088000B3F5005F1AD132B1012A07D0022A03D092
:10089000032A11D10AE000BF01200EE0CB6A03F069
:1008A0008073B3F1807F00D1012006E0CB6AB3F101
:1008B000C07F00D1012000E000BF15E032B1012A65
:1008C00005D0022A04D0032A0CD103E000BF00BFE8
:1008D000012008E0CB6A03F08073B3F1807F00D180
:1008E000012000E000BF00BF704730B504682468F5
:1008F00024F4802405682C60046863608468402CBC
:1009000004D10468A2600468E16003E00468A160A7
:100910000468E26030BD704772B600BFFEE70000B9
:100920000020724908600021714801F045FC042153
:100930006F4801F041FC3D226D496E48FFF7B0FD64
:100940006B4890F83D106B481C3880F85910684887
:1009500090F83E1067481C3880F85A10644890F8A8
:100960003F1064481C3880F85B10614890F84010D4
:1009700060481C3880F85C105D4890F841105D4874
:100980001C3880F85D105A4890F8421059481C38BD
:1009900080F85E10564890F8431056481C3880F88E
:1009A0005F10534890F8441052481C3880F860108B
:1009B0004F4890F845104F481C3880F861104C485B
:1009C00090F846104B481C3880F862104A48494954
:1009D0001C3948662020A1F868004848006802F0E9
:1009E00075FF4748006802F081FF00BF4548006876
:1009F000C07A022803D11420404908600CE0414825
:100A00000068C07A032803D173203C49086003E0E2
:100A10003A480068394908603A480068B0F9080067
:100A2000B0F5257F0ED1364800689B2805DA34489A
:100A30000068401C324908601EE0314800683049B7
:100A4000086019E02F480068B0F9080010F5257F0C
:100A50000ED12B480068462805DD29480068401E55
:100A60002749086008E0264800682549086003E037
:100A700023480068224908602048006802F026FFE9
:100A80001F48006802F032FF1E480068807A022882
:100A90000DD11C480068B0F90200842190FBF1F4EC
:100AA000194B00221146204602F0BAFC14E015480A
:100AB0000068807A03280FD1144991ED020AF2EE02
:100AC000040A20EE200ABDEEC00A10EE100A0E4BFA
:100AD0000022114602F0A4FC0B49086905491C39A3
:100AE000FFF716FE082003F004FE7FE70800002051
:100AF000BC060020A8020020000402401C000020C8
:100B00002000002000000020A8000020EC4500206C
:100B100070B50446A56D00F045FB064694F8350017
:100B2000022808D08020606500BF002084F83400CF
:100B300000BF012070BD2068006820F01600216809
:100B400008602068406920F0800021684861206CBE
:100B500008B9A06C28B12068006820F0080021685E
:100B600008602068006820F001002168086010E03B
:100B700000F018FB801B05280BD92020606503209E
:100B800084F8350000BF002084F8340000BF032043
:100B9000D0E72068006800F001000028E8D194F850
:100BA0005C103F208840A860012084F8350000BF19
:100BB000002084F8340000BF00BFBBE7014691F875
:100BC0003500022803D080204865012070470520A9
:100BD00081F835000868006820F001000A6810609C
:100BE0000020F3E7F8B50446002000908C48006828
:100BF0004FF41651B0FBF1F7A56D2E6894F85C1018
:100C000008208840304098B12068006800F0040057
:100C100070B12068006820F004002168086094F832
:100C20005C1008208840A860606D40F0010060659D
:100C300094F85C1001208840304068B12068406919
:100C400000F0800040B194F85C1001208840A8605A
:100C5000606D40F00200606594F85C1004208840EC
:100C6000304068B12068006800F0020040B194F89C
:100C70005C1004208840A860606D40F0040060654E
:100C800094F85C1010208840304078B320680068E9
:100C900000F0080050B394F85C1010208840A86061
:100CA0002068006800F4802080B12068006800F4AB
:100CB000002028B9206CC8B12046216C884715E077
:100CC000A06C98B12046A16C88470FE020680068AE
:100CD00000F4807028B92068006820F008002168BE
:100CE0000860206C10B12046216C884794F85C1095
:100CF000202088403040002865D02068006800F03F
:100D0000100000285FD094F85C1020208840A86074
:100D100094F83500052828D12068006820F01600D6
:100D2000216808602068406920F0800021684861DF
:100D3000206C08B9A06C28B12068006820F0080079
:100D40002168086094F85C103F208840A86001206A
:100D500084F8350000BF002084F8340000BF206D07
:100D600010B12046216D8847F8BD2068006800F466
:100D7000802080B12068006800F4002028B9606CF1
:100D800010B12046616C88471DE0E06BD8B1204669
:100D9000E16B884717E02068006800F4807068B94C
:100DA0002068006820F0100021680860012084F8A5
:100DB000350000BF002084F8340000BFE06B10B1A4
:100DC0002046E16B8847606D38B3606D00F001002C
:100DD000F0B1052084F835002068006820F001009B
:100DE0002168086000BF0098401C0090B84200D9FC
:100DF00005E02068006800F001000028F3D100BF82
:100E0000012084F8350000BF002084F8340000BFC2
:100E1000E06C10B12046E16C884700BFA4E70000F9
:100E2000380000202DE9F0410446002500F0BAF911
:100E3000074614B90120BDE8F081606A00B100BF27
:100E4000022084F8350000BF002084F8340000BF81
:100E50002068006820F00100216808600AE000F0C6
:100E6000A1F9C01B052805D920206065032084F85E
:100E70003500E0E72068006800F001000028EED1AE
:100E80002068056821480540D4E901010843E1686C
:100E900008432169084361690843A1690843E1697E
:100EA0000843216A08430543606A042803D1D4E952
:100EB0000B0108430543206805602068456925F05B
:100EC0000705606A0543606A04280DD1A06A0543DE
:100ED000E06A48B12046FFF7B3FC28B140206065C6
:100EE000012084F83500A6E7206845612046FFF719
:100EF0008DFC064694F85C103F208840B0600020CE
:100F00006065012084F83500002094E73F8010F0F0
:100F10002DE9F04704460D4616461F464FF00008DF
:100F2000D4F8589000BF94F83400012802D1022070
:100F3000BDE8F087012084F8340000BF94F8350044
:100F4000012825D1022084F83500002060653B4649
:100F5000324629462046FFF7C8FC94F85C103F2033
:100F60008840C9F808002068006840F01600216831
:100F70000860206C28B12068006840F008002168F3
:100F800008602068006840F001002168086006E001
:100F900000BF002084F8340000BF4FF00208404634
:100FA000C6E70000F8B502460B46002500240020E5
:100FB0000021D6E0012606FA01F51E6806EA0504BE
:100FC000AC4274D11E7906F00306012E04D01E79BE
:100FD00006F00306022E13D190684F000326BE4090
:100FE000B0434F00DE68BE40304390605068012639
:100FF0008E40B0431E79C6F300168E4030435060D9
:101000001E7906F00306032E09D0D0684F00032690
:10101000BE40B0434F009E68BE403043D0601E7952
:1010200006F00306022E13D1CF0802F1200656F86F
:1010300027004E07F70E0F26BE40B0434F07FF0EA6
:101040001E69BE403043CF0802F1200646F8270053
:1010500010684F000326BE40B0431E7906F0030619
:101060004F00BE40304310605E6806F44036002EEC
:1010700076D000BF002600963C4E366846F4804687
:101080003A4F3E603E46366806F48046009600BF02
:1010900000BF374E8F0856F827008E07370F0F26F0
:1010A000BE40B043334EB24202D1002624E057E0A6
:1010B000314EB24201D101261EE0304EB24201D182
:1010C000022619E02E4EB24201D1032614E02D4E25
:1010D000B24201D104260FE02B4EB24201D10526C7
:1010E0000AE02A4EB24201D1062605E0284EB2425D
:1010F00001D1072600E008268F073F0FBE4030438E
:101100001B4E8F0846F82700224E3068A0435E68C9
:1011100006F4801606B120431E4E3060361D30683E
:10112000A0435E6806F4001606B12043194E361D32
:101130003060184E361F3068A0435E6806F40036F3
:1011400006B12043134E361F3060361F3068A0436F
:101150005E6806F4803606B120430E4E083E3060CD
:10116000491C1029FFF426AFF8BD000044380240A6
:10117000083801400000024000040240000802401C
:10118000000C02400010024000140240001802400F
:10119000001C0240083C01400AB1816101E00B04DF
:1011A0008361704701480068704700002C000020F0
:1011B00003480068034909780844014908607047FA
:1011C0002C0000203400002010B50D48006840F4C9
:1011D00000700B4908600846006840F480600860B1
:1011E0000846006840F480700860032000F0E0F8D2
:1011F0000F2000F007F800F05FF8002010BD00009D
:10120000003C02402DE9F04188B004460027B84672
:1012100000BF002001902348006840F010002149E1
:1012200008600846006800F01000019000BF00BF91
:1012300002A903A800F092F9069F1FB900F0B6F9C1
:10124000054602E000F0B2F945001748B5FBF0F0A2
:10125000A0F1010815481649086040F2E73114482A
:10126000C160C0F80480002101618160816100F0EB
:10127000BFFC064696B90E4800F020FD06466EB942
:10128000362000F043F8102C07D2002221463620E9
:1012900000F050F80748046000E00126304608B02E
:1012A000BDE8F0814038024040420F00001000408D
:1012B0009C0800203000002008B500BF00200090EE
:1012C0001148006840F480400F49086008460068F3
:1012D00000F48040009000BF00BF00BF00200090DD
:1012E000081F006840F08050091F08600846006829
:1012F00000F08050009000BF00BF00220F21901E20
:1013000000F018F808BD00004438024001460846C5
:1013100000280DDB00BF00BF00F01F0301229A4030
:1013200043099B0003F1E023C3F8002100BF00BF85
:1013300000BF70472DE9F05F80460D461646002736
:1013400003F046F9074639462A46334601F00700BE
:10135000C0F1070ABAF1040F02D94FF0040A01E004
:10136000C0F1070AD14600F1040ABAF1070F02D210
:101370004FF0000A01E0A0F1030AD4464FF0010A41
:101380000AFA09FAAAF1010A0AEA020A0AFA0CFAA6
:101390004FF0010B0BFA0CFBABF1010B0BEA030B4B
:1013A0004AEA0B042146404603F01AF9BDE8F09FD3
:1013B00000BF00F00702064B19684FF6FF03194003
:1013C000044B0B4343EA0221014B196000BF7047F5
:1013D0000CED00E00000FA0570B504460D460CB9AE
:1013E000012070BD5848006800F00700A84209D2EB
:1013F00055490D700846006800F00700A84201D06A
:101400000120EEE7207800F0020002281DD12078AC
:1014100000F00400042805D14C48006840F4E05076
:101420004A490860207800F00800082805D147489C
:10143000006840F46040454908604448006820F076
:10144000F000A168084341490860207800F00100DD
:10145000A8B36068012807D13C4808380068C0F389
:101460004040B8B90120BCE76068022802D060683B
:10147000032807D1354808380068C0F3406048B9F0
:101480000120AEE7314808380068C0F3400008B9D1
:101490000120A6E72D48006820F00300616808439A
:1014A0002A490860FFF77EFE064609E0FFF77AFE4C
:1014B000801B41F28831884202D9032091E707E07E
:1014C0002248006800F00C006168B0EB810FEDD19C
:1014D0001D48006800F00700A84209D91A490D709C
:1014E0000846006800F00700A84201D0012078E714
:1014F000207800F00400042807D11448006820F484
:10150000E050E168084311490860207800F00800C5
:10151000082808D10D48006820F46040216940EA9D
:10152000C1000A49086000F061F808490968C1F380
:101530000311074A515CC840064908600648006824
:10154000FFF760FE00204CE7003C024008380240F4
:101550004857000838000020300000200F220260A9
:101560000D4A126802F0030242600B4A126802F050
:10157000F0028260084A126802F4E052C260064A31
:10158000126802F46042D2080261044A126802F052
:1015900007020A607047000008380240003C024021
:1015A00001480068704700003800002000B5FFF7D0
:1015B000F7FF04490968C1F38221034A515CC8401E
:1015C00000BD0000083802405857000800B5FFF77A
:1015D000E7FF04490968C1F34231034A515CC8403E
:1015E00000BD000008380240585700082DE9F047B8
:1015F000002400250026A1462548006800F00C00C4
:1016000020B1042805D008283AD105E0DFF88490FD
:1016100039E0DFF8849036E01D48001F006800F0D4
:101620003F041B48001F006800F4800078B11A488E
:101630001749091F0968C1F38811A0FB0170014611
:10164000224600233846FEF76FFE05460EE011489D
:101650000F49091F0968C1F38811A0FB01700146F9
:10166000224600233846FEF75FFE05460848001F65
:101670000068C0F30140401C4600B5FBF6F902E0EB
:10168000DFF8109000BF00BF4846BDE8F0870000BB
:10169000083802400024F40040787D01F8B5044683
:1016A0000CB90120F8BD207800F00100002874D0AA
:1016B000F948006800F00C0004280DD0F6480068D6
:1016C00000F00C00082813D1F348001F006800F454
:1016D0008000B0F5800F0BD1EF4808380068C0F3E8
:1016E0004040002859D06068002856D10120D9E731
:1016F00000BF6068B0F5803F08D1E748083800684F
:1017000040F48030E449083908601EE06068B0F5B4
:10171000A02F0DD1E0480838006840F48020DE4951
:10172000083908600846006840F4803008600CE022
:10173000D9480838006820F48030D7490839086053
:101740000846006820F48020086000BF606890B1FF
:10175000FFF728FD054606E0FFF724FD401B64283F
:1017600001D903209EE7CC4808380068C0F3404008
:101770000028F1D011E0FFF715FD054606E0FFF760
:1017800011FD401B642801D903208BE7C2480838AB
:101790000068C0F340400028F1D1207800F002003A
:1017A00002285FD1BC48006800F00C0058B1BA486C
:1017B000006800F00C0008281CD1B748001F006822
:1017C00000F48000B0B9B44808380068C0F34000A5
:1017D00020B1E068012801D0012063E7AE48083855
:1017E000006820F0F800216940EAC100AA490839E0
:1017F000086037E0E06800B30120A8490860FFF7FF
:10180000D1FC054606E0FFF7CDFC401B022801D9BC
:10181000032047E7A04808380068C0F340000028CC
:10182000F1D09D480838006820F0F800216940EAAE
:10183000C10099490839086014E000209749086000
:10184000FFF7B0FC054606E0FFF7ACFC401B0228A2
:1018500001D9032026E7904808380068C0F340000B
:101860000028F1D1207800F0080008282CD1606908
:10187000A8B101208A490860FFF794FC054606E0FC
:10188000FFF790FC401B022801D903200AE7824899
:101890006C300068C0F340000028F1D014E0002054
:1018A0007F490860FFF77EFC054606E0FFF77AFCFB
:1018B000401B022801D90320F4E677486C30006809
:1018C000C0F340000028F1D1207800F00400042883
:1018D00070D1002770483830006800F0805090B90F
:1018E00000BF002000906C483830006840F0805005
:1018F0006949383108600846006800F0805000905F
:1019000000BF00BF01276748006800F48070B0B9CD
:101910006448006840F4807062490860FFF742FC48
:10192000054606E0FFF73EFC401B022801D90320D4
:10193000B8E65C48006800F480700028F2D000BF70
:10194000A068012808D154486830006840F00100C0
:101950005149683108601DE0A06805280DD14E4846
:101960006830006840F004004B4968310860084660
:10197000006840F0010008600CE0474868300068EB
:1019800020F001004449683108600846006820F0F2
:101990000400086000BFA068A8B1FFF703FC05467B
:1019A00009E0FFF7FFFB401B41F28831884202D972
:1019B000032077E626E0384868300068C0F340002E
:1019C0000028EED013E0FFF7EDFB054608E0FFF737
:1019D000E9FB401B41F28831884201D9032061E6CE
:1019E0002D4868300068C0F340000028EFD1012F77
:1019F00007D129483830006820F080502649383116
:101A0000086000BFA069002845D02348006800F0A6
:101A10000C0008285DD0A069022845D100201F498C
:101A20000866FFF7BFFB054606E0FFF7BBFB401B60
:101A3000022801D9032035E6174808380068C0F3AA
:101A400040600028F1D1D4E907010843616A40EA07
:101A500081110122A06AC2EB500041EA00412C2012
:101A6000005D41EA00600C49091F086001200B4934
:101A70000866FFF797FB054606E0FFF793FB401B60
:101A8000022801D903200DE6034808380068C0F396
:101A900040600028F1D049E0083802400000474289
:101AA000800E474200700040002021490866FFF781
:101AB00079FB054606E0FFF775FB401B022801D9BC
:101AC0000320EFE51B480068C0F340600028F2D116
:101AD0002CE0A069012800D1E4E51648001D066845
:101AE000A069012820D006F48001E06981421BD161
:101AF00006F03F01206A814216D147F6C07030409F
:101B0000616AB0EB811F0FD106F440310122A06A57
:101B1000C2EB5000B1EB004F06D106F070612C20F3
:101B2000005DB1EB006F01D00120BBE50020B9E5FD
:101B300000004742003802407047704730B5024607
:101B40000B4600BF92F83C00012801D1022030BDB5
:101B5000012082F83C0000BF022082F83D0010689E
:101B600044681068816824F07004186804431068A1
:101B70004460184D1068A8421BD01068B0F1804F27
:101B800017D0154D1068A84213D0144D1068A84204
:101B90000FD0134D1068A8420BD0124D1068A84208
:101BA00007D0114D1068A84203D0104D1068A8420C
:101BB00005D121F08001586801431068816001203F
:101BC00082F83D0000BF002082F83C0000BF00BF4B
:101BD000BDE7000000000140000400400008004094
:101BE000000C00400004014000400140001800408B
:101BF00010B504460CB9012010BD94F83D0028B979
:101C0000002084F83C00204600F026F8022084F8EA
:101C10003D00211D206801F007FF012084F84600E7
:101C200000BF84F83E0001213F20015540200155AE
:101C30004120015500BF00BF012084F8420043202D
:101C40000155442001554520015500BF012084F86D
:101C50003D000020D0E7000008B5154A0168914218
:101C60000FD100BF002100911249096841F008011D
:101C7000104A11601146096801F00801009100BF87
:101C800015E00D4A0168914211D100BF0021009179
:101C90000849091D096841F48021064A121D116096
:101CA0001146096801F48021009100BF00BF08BD02
:101CB000000C00404038024000480140014691F8C5
:101CC0003D00012801D001207047022081F83D002D
:101CD0000868C06840F001000B68D8601A4B0868BB
:101CE00098421BD00868B0F1804F17D0174B086896
:101CF000984213D0164B086898420FD0154B0868CD
:101D000098420BD0144B0868984207D0134B0868D0
:101D1000984203D0124B086898420CD1086880683A
:101D200000F00702062A0CD00868006840F00100A5
:101D30000B68186005E00868006840F001000B6857
:101D400018600020C0E700000000014000040040CF
:101D500000080040000C0040000401400040014029
:101D6000001800402DE9F04104460D46002700BF51
:101D700094F83C00012802D10220BDE8F081012046
:101D800084F83C0000BF022084F83D00206886688B
:101D900026F0770626F47F4620688660286850285B
:101DA00033D00CDC202850D004DC00284BD0102885
:101DB00051D149E0302849D040284CD139E0602841
:101DC0002DD0702807D0B0F5805F03D0B0F5005F4C
:101DD00041D10DE041E0D5E902136A68206801F0C5
:101DE000A8FE2068866846F077062068866034E0A2
:101DF000D5E902136A68206801F09BFE20688068BC
:101E000040F480402168886027E0EA6869682068BB
:101E100001F080FF5021206801F096FE1DE0EA6885
:101E20006968206801F089FF6021206801F08CFE5C
:101E300013E0EA686968206801F06CFF40212068BF
:101E400001F082FE09E000BF00BF00BF29682068E2
:101E500001F07AFE01E0012700BF00BF012084F8F5
:101E60003D0000BF002084F83C0000BF384684E7F6
:101E70002DE9F04104460D4614B90120BDE8F0817A
:101E800094F83D0028B9002084F83C00204600F07A
:101E900053F8022084F83D002068806844F207016E
:101EA000884321688860211D206801F0BDFD2068FD
:101EB000D0F80880206886692068076A286840EAA8
:101EC000080840F203308643A969A86840EA012067
:101ED000064340F60C4086434FF2F0008643E96922
:101EE000E86840EA0120064328690001296A40EABF
:101EF0000130064327F0220727F0880769696868E0
:101F000040EA011007432068C0F808802068866115
:101F100020680762012084F8460084F83E00012111
:101F20003F200155012084F8420043200155012043
:101F300084F83D000020A1E710B586B004461421C6
:101F400001A8FEF7DFFA94492068884230D100BF2B
:101F5000002000909148006840F001008F4908601F
:101F60000846006800F00100009000BF00BF00BFFD
:101F70000020009089481438006840F0010087492B
:101F8000143908600846006800F00100009000BFA6
:101F900000BF4FF440700190022002900020039097
:101FA00004900120059001A97D48FEF7FBFFF0E0B9
:101FB0002068B0F1804F4DD100BF002000907748DD
:101FC000001F006840F001007449091F08600846BE
:101FD000006800F00100009000BF00BF00BF0020BB
:101FE00000906E481438006840F001006B491439C5
:101FF00008600846006800F00100009000BF00BFC4
:1020000000BF002000900846006840F00200086011
:102010000846006800F00200009000BF00BF2020CA
:10202000019002200290002003900490012005906E
:1020300001A95B48FEF7B6FF08200190022002903C
:102040000020039004900120059001A95548FEF757
:10205000A9FF9EE054492068884231D100BF00208A
:1020600000904E48001F006840F002004B49091FD5
:1020700008600846006800F00200009000BF00BF42
:1020800000BF0020009045481438006840F001006F
:102090004249143908600846006800F001000090C9
:1020A00000BF00BFC02001900220029000200390DA
:1020B00004900220059001A93948FEF773FF68E0FB
:1020C0003A492068884231D100BF0020009033484F
:1020D000001F006840F004003049091F08600846EE
:1020E000006800F00400009000BF00BF00BF0020A7
:1020F00000902A481438006840F00200274914393B
:1021000008600846006800F00200009000BF00BFB1
:10211000C020019002200290002003900490022031
:10212000059001A91F48FEF73DFF32E020492068D5
:1021300088422ED100BF002000901848006840F06F
:102140000200164908600846006800F0020000908E
:1021500000BF00BF00BF0020009010481438006886
:1021600040F004000D49143908600846006800F08A
:102170000400009000BF00BFC02001900220029028
:102180000020039004900320059001A90948FEF760
:1021900009FF06B010BD00000000014044380240B5
:1021A000000002400004024000040040000800401B
:1021B00000040140000802402DE9F04304460D46AA
:1021C00094F83E603F20075D94F84280432010F869
:1021D00004906DB9012E02D1B8F1010F02D0012097
:1021E000BDE8F083022084F83E0084F8420025E038
:1021F000042D0CD1012F02D1B9F1010F01D0012022
:10220000EEE702213F2001554320015516E0012E43
:1022100007D1012F05D1B8F1010F02D1B9F1010F9A
:1022200001D00120DCE7022084F83E0002213F209B
:102230000155022084F842004320015515B1042DB8
:102240000CD105E001220021206801F061FC10E0C2
:1022500001220421206801F05BFC0AE00122002138
:10226000206801F055FC01220421206801F050FC97
:1022700000BF00BF2068006840F0010021680860CE
:102280000020ADE7704770B504462068C568206837
:10229000066906F00200022819D105F002000228A2
:1022A00015D1401F216808610120207720688069CE
:1022B00000F0030018B12046FFF7E4FF05E02046D8
:1022C00000F0EEF8204600F0A2F90020207706F09A
:1022D0000400042819D105F00400042815D1C043D6
:1022E00021680861022020772068806900F440702E
:1022F00018B12046FFF7C6FF05E0204600F0D0F8F1
:10230000204600F084F90020207706F00800082815
:1023100019D105F00800082815D1C04321680861CB
:10232000042020772068C06900F0030018B120461F
:10233000FFF7A8FF05E0204600F0B2F8204600F0C5
:1023400066F90020207706F01000102819D105F05A
:102350001000102815D1C04321680861082020779B
:102360002068C06900F4407018B12046FFF78AFF6A
:1023700005E0204600F094F8204600F048F90020DF
:10238000207706F0010048B105F0010030B16FF090
:10239000010021680861204600F0C0F906F08000C5
:1023A000802809D105F08000802805D1C04321682C
:1023B00008612046FFF7C0FB06F04000402809D125
:1023C00005F04000402805D1C0432168086120463F
:1023D00000F0B0F906F02000202809D105F0200017
:1023E000202805D1C043216808612046FFF7A5FBDE
:1023F00070BD000010B586B00446142101A8FEF798
:1024000081F82249206888421DD100BF0020009039
:102410001F48006840F001001D4908600846006838
:1024200000F00100009000BF00BF0E2001900220CC
:1024300002900020039004900220059001A9154805
:10244000FEF7B0FD20E01449206888421CD100BF8F
:10245000002000900E48006840F002000C4908601F
:102460000846006800F00200009000BF00BF481559
:102470000190022002900020039004900320059018
:1024800001A90648FEF78EFD06B010BD000C004005
:102490003038024000000240004801400004024081
:1024A00070472DE9F04104460D461646002700BF4F
:1024B00094F83C00012802D10220BDE8F0810120FF
:1024C00084F83C0000BF36B1042E1BD0082E31D05A
:1024D0000C2E5ED145E02946206801F03FFB2068C4
:1024E000806940F00800216888612068806920F0D8
:1024F000040021688861206880692969084321688F
:10250000886148E02946206801F060FB2068806906
:1025100040F40060216888612068806920F4806050
:102520002168886120688069296940EA0120216862
:10253000886130E02946206801F086FB2068C06988
:1025400040F008002168C8612068C06920F00400DC
:102550002168C8612068C069296908432168C86189
:1025600019E02946206801F0ABFB2068C06940F4FF
:1025700000602168C8612068C06920F4806021681B
:10258000C8612068C069296940EA01202168C861E2
:1025900001E0012700BF00BF00BF002084F83C001D
:1025A00000BF384689E710B504460CB9012010BDBC
:1025B00094F83D0028B9002084F83C00204600F043
:1025C00025F8022084F83D00211D206801F02CFA36
:1025D000012084F8460000BF84F83E0001213F201E
:1025E0000155402001554120015500BF00BF012089
:1025F00084F84200432001554420015545200155EF
:1026000000BF012084F83D000020D0E770477047EC
:1026100070B504460D4615B994F83E000BE0042D44
:1026200002D13F20005D06E0082D02D14020005D70
:1026300001E04120005D012801D0012070BD1DB9DD
:10264000022084F83E000EE0042D03D102213F2039
:10265000015508E0082D03D102214020015502E078
:1026600002214120015501222946206801F050FA3B
:1026700023492068884203D022492068884201D13A
:10268000012000E0002028B12068406C40F40040A8
:10269000216848641A49206888421BD02068B0F13C
:1026A000804F17D018492068884213D017492068F6
:1026B00088420FD01649206888420BD01149206803
:1026C000884207D013492068884203D01249206805
:1026D00088420CD12068806800F00706062E0CD0D6
:1026E0002068006840F001002168086005E020686B
:1026F000006840F001002168086000209EE70000AB
:1027000000000140000401400004004000080040B7
:10271000000C0040004001400018004010B5044685
:1027200003492068884201D1FEF742FD10BD000038
:10273000001000407047704770B5044600252068BF
:102740004069C0F3C01594F84100212817D1B5B1F4
:1027500000BF00BF2168143151E8001F21F0800044
:102760002168143141E80002002AF3D100BFA06BB8
:1027700010B1A06BFEF7CCF9204601F013FC2068E5
:102780004069C0F3801594F84200222817D1B5B1F2
:1027900000BF00BF2168143151E8001F21F0400044
:1027A0002168143141E80002002AF3D100BFE06B38
:1027B00010B1E06BFEF7ACF9204601F0ADFB002054
:1027C00070BD70472DE9F84F044620680568206801
:1027D000C668206847694FF00009CA4605F00F092E
:1027E000B9F1000F0AD105F0200038B106F0200041
:1027F00020B1204601F0E9FBBDE8F88FB9F1000FE8
:102800007CD007F0010018B906F49070002875D04C
:1028100005F0010030B106F4807018B1606C40F032
:102820000100606405F0040030B107F0010018B148
:10283000606C40F00200606405F0020030B107F007
:10284000010018B1606C40F00400606405F00800FD
:1028500048B106F0200010B907F0010018B1606C13
:1028600040F008006064606C002846D005F020004D
:1028700028B106F0200010B1204601F0A6FB206828
:102880004069C0F3801A606C00F0080010B9BAF11A
:10289000000F2DD0204601F03FFB2068406900F07A
:1028A0004000402820D100BF00BF2168143151E80A
:1028B000001F21F040002168143141E80002002A85
:1028C000F3D100BFE06B50B17748E16B0865E06B76
:1028D000FEF774F988B1E06B016D88470DE0204682
:1028E000FFF76FFF09E009E02046FFF76AFF04E009
:1028F0002046FFF766FF002060647DE7206B01281B
:1029000078D105F01000002874D006F010000028DF
:10291000FAD000BF00200090206800680090206876
:102920004068009000BF00BF2068406900F0400090
:10293000402860D1E06B006840681FFA80F8B8F169
:10294000000F56D0A08D404553DDA4F82E80E06BDB
:10295000C069B0F5807F43D000BF00BF21680C3153
:1029600051E8001F21F4807021680C3141E8000219
:10297000002AF3D100BF00BF00BF2168143151E825
:10298000001F21F001002168143141E80002002AF3
:10299000F3D100BF00BF00BF2168143151E8001F10
:1029A00021F040002168143141E80002002AF3D1EF
:1029B00000BF202084F842000020206300BF00BF39
:1029C00021680C3151E8001F21F0100021680C3102
:1029D00041E80002002AF3D100BFE06BFEF798F84F
:1029E00002206063A08DE28D801A81B22046FFF73D
:1029F000A2FE01E742E0A08DE18D401A1FFA80F8A7
:102A0000E08DD0B3B8F1000F37D000BF00BF216810
:102A10000C3151E8001F21F4907021680C3141E81D
:102A20000002002AF3D100BF00BF00BF21681431AB
:102A300051E8001F21F001002168143141E8000233
:102A4000002AF3D100BF202084F842000020206338
:102A500000BF00BF21680C3151E8001F21F01000B9
:102A600021680C3141E80002002AF3D100BF0220A6
:102A7000606341462046FFF75EFEBDE605F080003C
:102A800030B106F0800018B1204601F097FCB3E6A3
:102A900005F0400030B106F0400018B1204601F0CA
:102AA00071FAA9E600BFA7E6DD3D000810B50446AF
:102AB0000CB9012010BDA06900B100E000BF94F87E
:102AC000410028B9002084F84000204600F02AF890
:102AD000242084F841002068C06820F40050216858
:102AE000C860204601F0F0FA2068006920F49040A8
:102AF000216808612068406920F02A002168486147
:102B00002068C06840F400502168C86000206064FC
:102B1000202084F8410084F842000020606300BF58
:102B2000C8E7000010B586B00446142101A8FDF7DF
:102B3000E9FC6D492068884275D100BF00200090F3
:102B40006A48006840F480106849086008460068D8
:102B500000F48010009000BF00BF00BF0020009074
:102B600062481038006840F004006049103908607D
:102B70000846006800F00400009000BF00BF00BFDE
:102B8000002000900846006840F0080008600846F1
:102B9000006800F00800009000BF00BF881401909A
:102BA000022002900020039003200490082005904A
:102BB00001A94F48FEF7F6F9042001900220029087
:102BC00000200390032004900820059001A94948A3
:102BD000FEF7E8F9484849490860C0054860002107
:102BE00046488160C1604FF480610161002141610C
:102BF0008161C1614FF40031016200214162FEF741
:102C000011F908B1FDF788FE00BF3C48E06384631A
:102C100000BF002206213520FEF78CFB3520FEF791
:102C200075FB5EE0FFE736492068884259D100BF56
:102C3000002000902D48006840F480202B49086057
:102C40000846006800F48020009000BF00BF00BF6D
:102C50000020009025481038006840F00200234909
:102C6000103908600846006800F00200009000BFBC
:102C700000BF4FF4406001900220029000200390BA
:102C8000032004900720059001A91E48FEF78AF949
:102C9000194818301C4908604FF000604860002156
:102CA00019488160C1604FF4806101610021416178
:102CB0008161C1614FF44031016200214162FEF740
:102CC000B1F808B1FDF728FE00BF0F48E063846348
:102CD00000BF002205212720FEF72CFB2720FEF74E
:102CE00015FB06B010BD0000005000404038024007
:102CF00000080240000C024010600240DC07002087
:102D000000480040000402403C08002070B5044622
:102D10000D46164694F8420020280BD105B10EB995
:102D2000012070BD0020206332462946204601F074
:102D3000E1FAF6E70220F4E710B504460A492068F4
:102D400088420FD1102209490948FDF764FB64232A
:102D500010220649074800F010F8102203490548E0
:102D6000FFF7D4FF10BD000000500040FC450020DC
:102D7000EC4500204C07002070472DE9F84F044631
:102D80000E46174699464FF0000A94F84100202855
:102D900050D106B117B90120BDE8F88F002060645A
:102DA000212084F84100FEF7FDF98246A784E784DC
:102DB000A068B0F5805F04D1206910B90025B04645
:102DC00002E035464FF000081EE053460022802105
:102DD0002046CDF8009001F021FB20B1202084F89E
:102DE00041000320D8E745B9B8F80000C0F3080057
:102DF0002168486008F1020803E0287821684860EB
:102E00006D1CE08C401EE084E08C0028DDD1534630
:102E1000002240212046CDF8009001F0FFFA20B1B9
:102E2000202084F841000320B6E7202084F84100E8
:102E30000020B1E70220AFE7704700BFFEE70000C7
:102E400008B500BF002000900E48006840F4001054
:102E50000C4908600846006800F40010009000BFAC
:102E600000BF002205210B20FEF764FA0B20FEF7BD
:102E70004DFA002205210C20FEF75CFA0C20FEF72B
:102E800045FA08BD3038024000B595B01C22124901
:102E90000EA8FDF705FB00210EA801F03BFC0F4931
:102EA00008601C220C491C3107A8FDF7F9FA002123
:102EB00007A801F02FFC0A4908601C220649383196
:102EC0006846FDF7EDFA0021684601F023FC05494C
:102ED000086015B000BD0000EC560008100000208E
:102EE000140000201800002000B587B0142102A8AB
:102EF000FDF708FB00BF002001903B48006840F050
:102F00008000394908600846006800F080000190A0
:102F100000BF00BF00BF002001900846006840F0DD
:102F2000040008600846006800F00400019000BF3B
:102F300000BF00BF002001900846006840F001007B
:102F400008600846006800F00100019000BF00BF63
:102F500000BF002001900846006840F002000860B1
:102F60000846006800F00200019000BF00BF00BFEB
:102F7000002001900846006840F0080008600846FC
:102F8000006800F00800019000BF00BF002240F67A
:102F90003F411648FEF700F9002220211448FEF7B1
:102FA000FBF840F63F40029001200390002004907F
:102FB000059002A90D48FDF7F5FF102002900020B2
:102FC0000390049002A90A48FDF7ECFF202002902C
:102FD0000120039000200490059002A90448FDF709
:102FE000E1FF07B000BD0000303802400008024099
:102FF0000004024000B587B01C216846FDF782FA44
:103000001548164908605320486000211348816024
:103010006321C160002101618161FEF7E9FD08B112
:10302000FDF77AFC0D48FFF7BEFA08B1FDF774FC16
:1030300060200090002001900290049000226946D8
:103040000648FFF72EFA08B1FDF766FC0348FFF7C4
:10305000D1F907B000BD000000480140040700207E
:1030600000B58BB0242102A8FDF74CFA0020009097
:10307000019018481849086000204860002116484F
:1030800081604FF6FF71C160002101614161816182
:10309000032002900020039001200490002005905E
:1030A0000690079001200890002009900A9002A93C
:1030B0000948FEF7DDFE08B1FDF72EFC0020009068
:1030C000019069460448FEF739FD08B1FDF724FC7C
:1030D0000BB000BD000001405405002000B58BB0CE
:1030E000242102A8FDF70EFA0020009001904FF075
:1030F0008040174908600020486000211448816022
:103100004FF6FF71C16000210161816103200290CF
:103110000020039001200490002005900690079065
:1031200001200890002009900A9002A90848FEF7A3
:103130009FFE08B1FDF7F0FB00200090019069466A
:103140000348FEF7FBFC08B1FDF7E6FB0BB000BD42
:103150009C05002000B58BB0242102A8FDF7D2F910
:10316000002000900190184818490860002048602D
:103170000021164881604FF6FF71C1600021016196
:103180008161032002900020039001200490002020
:1031900005900690079001200890002009900A9061
:1031A00002A90A48FEF764FE08B1FDF7B5FB00204E
:1031B0000090019069460548FEF7C0FC08B1FDF794
:1031C000ABFB0BB000BD000000040040E405002094
:1031D00000B58BB0242102A8FDF794F900200090DF
:1031E00001901848184908600020486000211648DE
:1031F00081604FF6FF71C160002101618161032090
:103200000290002003900120049000200590069079
:10321000079001200890002009900A9002A90A480E
:10322000FEF726FE08B1FDF777FB00200090019025
:1032300069460548FEF782FC08B1FDF76DFB0BB04F
:1032400000BD0000000800402C06002000B58DB035
:10325000002009900A900B900C90079008901C2178
:103260006846FDF74FF928482849086040F28F600A
:10327000486000212548816040F2E731C1600021AB
:1032800001618161FEF7B4FC08B1FDF745FB4FF425
:103290008050099009A91D48FEF764FD08B1FDF7AB
:1032A0003BFB1A48FFF77FF908B1FDF735FB00201B
:1032B0000790089007A91548FEF740FC08B1FDF7F4
:1032C0002BFB6020009000200190029004900422CB
:1032D00069460E48FFF7E5F808B1FDF71DFB082227
:1032E00069460A48FFF7DDF808B1FDF715FB0C2227
:1032F00069460648FFF7D5F808B1FDF70DFB03480E
:10330000FFF778F80DB000BD000C004074060020F7
:1033100000B58BB0242102A8FDF7F4F8002000903E
:10332000019018481849086000204860002116489C
:1033300081604FF6FF71C1600021016141618161CF
:1033400001200290002003900120049000200590AD
:103350000690079001200890002009900A9002A989
:103360000948FEF785FD08B1FDF7D6FA0020009068
:10337000019069460448FEF7E1FB08B1FDF7CCFA7D
:103380000BB000BD00040140BC06002010B50B4886
:103390000B4908604FF4E130486000210848816023
:1033A000C16001610C21416100218161C161FFF7B0
:1033B0007DFB08B1FDF7B0FA10BD000000500040E1
:1033C0004C07002010B50B480B4908600B484860BB
:1033D000002109488160C1604FF4806101610C21C6
:1033E000416100218161C161FFF760FB08B1FDF718
:1033F00093FA10BD0048004094070020A086010009
:1034000010B544420C44A41A1C60441AA41A5C600F
:103410004442641A14449C6044181444DC6010BD97
:1034200010B54418A41A1C6110BD00BFFEE70000CF
:103430000021F248FEF7C0FE0421F048FEF7BCFE72
:103440000021EF48FEF7B8FE0421ED48FEF7B4FE78
:103450000021EC48FEF7B0FE0421EA48FEF7ACFE7E
:103460000021E948FEF7A8FE0421E748FEF7A4FE84
:103470003D22E249E548FDF713F8E04890F83D1099
:10348000E2481C3880F85910DC4890F83E10DF48BC
:103490001C3880F85A10D94890F83F10DB481C3887
:1034A00080F85B10D54890F84010D8481C3880F858
:1034B0005C10D24890F84110D4481C3880F85D1058
:1034C000CE4890F84210D1481C3880F85E10CB48A6
:1034D00090F84310CD481C3880F85F10C74890F82A
:1034E0004410CA481C3880F86010C44890F8451051
:1034F000C6481C3880F86110C04890F84610C34890
:103500001C3880F862103D22BE49C148FCF7C8FF54
:10351000BC4890F83D10BE481C3880F85910B94896
:1035200090F83E10BA481C3880F85A10B54890F808
:103530003F10B7481C3880F85B10B24890F8401034
:10354000B3481C3880F85C10AE4890F84110B04881
:103550001C3880F85D10AB4890F84210AC481C381D
:1035600080F85E10A74890F84310A9481C3880F8EE
:103570005F10A44890F84410A5481C3880F86010EB
:10358000A04890F84510A2481C3880F861109D486A
:1035900090F846109E481C3880F862103D229849E9
:1035A0009C48FCF77DFF964890F83D1099481C38E0
:1035B00080F85910924890F83E1096481C3880F8D0
:1035C0005A108F4890F83F1092481C3880F85B10D2
:1035D0008B4890F840108F481C3880F85C10884861
:1035E00090F841108B481C3880F85D10844890F8A2
:1035F000421088481C3880F85E10814890F84310CB
:1036000084481C3880F85F107D4890F84410814849
:103610001C3880F860107A4890F845107D481C38B6
:1036200080F86110764890F846107A481C3880F887
:1036300062103D2274497848FCF732FF724890F8D6
:103640003D1075481C3880F859106F4890F83E10AE
:1036500071481C3880F85A106B4890F83F106E483B
:103660001C3880F85B10684890F840106A481C3895
:1036700080F85C10644890F8411067481C3880F866
:103680005D10614890F8421063481C3880F85E1065
:103690005D4890F8431060481C3880F85F105A4825
:1036A00090F844105C481C3880F86010564890F838
:1036B000451059481C3880F86110534890F846105E
:1036C00055481C3880F86210544850491C394866E7
:1036D0000820A1F868005148C8660420A1F87000CD
:1036E0004E484B491C3948662020A1F868004B48D9
:1036F000C8661020A1F87000484846491C39486641
:103700000120A1F868004548C8660220A1F87000B1
:10371000424841491C394866C014A1F868003F4836
:10372000C8660015A1F8700000BF3D480068807AA7
:10373000022819D13A480068B0F90400422190FBF0
:10374000F1F437480068B0F9000090FBF1F5344817
:103750000068B0F9060090FBF1F6324B224629468C
:103760003046FFF74DFE28E02D480068807A032898
:1037700023D12D4B93ED030AF2EE040A20EE200A2A
:10378000BDEEC00A10EE102A93ED010AB1EE400A18
:10379000F2EE040A20EE200ABDEEC00A10EE101A66
:1037A00093ED000AF2EE040A20EE200ABDEEC00AF4
:1037B00010EE100A1B4BFFF723FE1A49002208687F
:1037C00013491C39FCF702FF1649002248680F49CB
:1037D0001C39FCF7FBFE1349002288680E491C398E
:1037E000FCF7F4FE0F490022C8680A491C39FCF7AF
:1037F000EDFE032000F07DFF97E700005405002058
:103800009C050020E40500202C0600204C0100202F
:10381000D800002034020020C0010020000802402F
:1038200000000020A8000020EC45002000BFFEE7BB
:1038300010B5234B1B685B6943F04003204C2468A0
:1038400063611F4B1B68DB6843F010031C4C24684A
:10385000E3601C4B1B681B6823F00103194C2468B0
:10386000236007E0174B1B681B6823F00103154C0E
:1038700024682360134B1B681B6803F00103002BB3
:10388000F0D1114B0F4C2468A3600E4B1B68D8601D
:103890000C4B1B6819610B4B1B685A60094B1B686A
:1038A0001B6843F48023074C24682360054B1B6886
:1038B0001B6843F00103034C2468236010BD000023
:1038C000940700203C08002004480040B42800DD94
:1038D000B42064224243B423B2FBF3F202F1190193
:1038E000014A1268D163704774060020B42800DDD5
:1038F000B42064224243B423B2FBF3F202F1190173
:10390000014A1268116470477406002000BF0A2043
:1039100000F0EFFEFBE7000010B500BF502080F381
:103920001188BFF34F8FBFF36F8F00BF01F0B2FD5F
:1039300018B14FF080500449086000BF002080F3A8
:10394000118800BF10BD000004ED00E000B593B089
:10395000302107A8FCF7D6FD142102A8FCF7D2FD00
:1039600000BF002001902548006840F080502349A6
:1039700008600846006800F08050019000BF00BF5A
:1039800000BF002001901E48006840F480401C49A0
:1039900008600846006800F48040019000BF00BF46
:1039A0000220079001200A9010200B9002200D9019
:1039B00000210E9108210F91A8211091022111914F
:1039C0000421129107A8FDF769FE08B1FCF7A4FFD6
:1039D0000F20029002200390002004904FF4A0508A
:1039E00005904FF480500690052102A8FDF7F4FCE5
:1039F00008B1FCF791FF13B000BD00004038024051
:103A0000007000400348006840F4700001490860FD
:103A10007047000088ED00E010B50248FEF733FC67
:103A200010BD00009C08002010B502682D4B984284
:103A30000ED0B0F1804F0BD02B4B984208D02B4BBF
:103A4000984205D02A4B984202D02A4B984203D183
:103A500022F070024B681A43224B984220D0B0F1FA
:103A6000804F1DD0204B98421AD0204B984217D03F
:103A70001F4B984214D01F4B984211D01E4B9842B6
:103A80000ED01E4B98420BD01D4B984208D01D4BB8
:103A9000984205D01C4B984202D01C4B984203D14F
:103AA00022F44072CB681A4322F080034C6943EA47
:103AB000040202608B68C3620B688362094B984200
:103AC00002D00C4B984201D10B690363012343617F
:103AD000036903F001031BB1036923F001030361D0
:103AE00010BD00000000014000040040000800403C
:103AF000000C00400004014000400140004401402F
:103B00000048014000180040001C00400020004018
:103B100030B501F01F05012404FA05F3046A9C4343
:103B20000462046A01F01F0502FA05F52C430462E1
:103B300030BD30B50C46816821F47F4142EA03254F
:103B400025432943816030BD0A46816821F0700118
:103B500042F00703194381607047000030B5026AE4
:103B6000056A25F0010505624368846924F0700444
:103B700024F003040D682C4322F002028D682A43CE
:103B8000104DA84200D103E00F4DA84206D100BF5E
:103B900022F00802CD682A4322F00402094DA8420F
:103BA00002D0094DA84207D123F4807323F4007397
:103BB0004D692B438D692B43436084614D68456398
:103BC000026230BD000001400004014030B5026ACD
:103BD000056A25F0100505624368846924F4E04411
:103BE00024F440740D6844EA052422F020028D6814
:103BF00042EA0512124DA84200D103E0114DA8423D
:103C000007D100BF22F08002CD6842EA051222F0FF
:103C100040020B4DA84202D00A4DA84209D123F41C
:103C2000806323F400634D6943EA85038D6943EAA9
:103C30008503436084614D688563026230BD000086
:103C4000000001400004014030B5026A056A25F415
:103C5000807505624368C46924F0700424F003048D
:103C60000D682C4322F400728D6842EA0522124D41
:103C7000A84200D103E0114DA84207D100BF22F4B1
:103C80000062CD6842EA052222F480620A4DA84211
:103C900002D00A4DA84209D123F4805323F40053E3
:103CA0004D6943EA05138D6943EA05134360C46116
:103CB0004D68C563026230BD000001400004014050
:103CC00030B5036A056A25F4805505624468C26907
:103CD00022F4E04222F440720D6842EA052223F405
:103CE00000538D6843EA0533084DA84202D0084DC1
:103CF000A84204D124F480444D6944EA8514446008
:103D0000C2614D680564036230BD000000000140DF
:103D10000004014030B50B461446026A056A25F0DE
:103D200001050562816921F0F00141EA041122F0E8
:103D30000A021A438161026230BD30B50B46144657
:103D4000026A056A25F010050562816921F4704157
:103D500041EA043122F0A00242EA031281610262C8
:103D600030BD000008B51048FEF7E6FC0E480068BC
:103D70000068C0F3001070B100BF002000900A4836
:103D8000006800680090084800684068009000BF24
:103D900000BF00F00DF8102204490348FEF7B6FFFB
:103DA0000148FEF70FFD08BD4C070020FC45002030
:103DB00010B50748C06B00684068C0F11004102CB3
:103DC00004D1102203490448FCF725FB10BD000074
:103DD0004C070020FC450020EC45002070B505464E
:103DE000AC6B0020E085E0842046FEF7EAFC70BD65
:103DF00070B506460025B46B20684069C0F3C01555
:103E000094F84100212805D125B10020E084204606
:103E100000F0C8F820684069C0F3801594F84200AB
:103E2000222805D125B10020E085204600F074F855
:103E3000606C40F0100060642046FEF7C2FC70BD6C
:103E400070B50546AC6B2868006800F480700028E7
:103E500042D1E08500BF00BF21680C3151E8001F4E
:103E600021F4807021680C3141E80002002AF3D16E
:103E700000BF00BF00BF2168143151E8001F21F0CE
:103E800001002168143141E80002002AF3D100BF8B
:103E900000BF00BF2168143151E8001F21F040002D
:103EA0002168143141E80002002AF3D100BF20202C
:103EB00084F84200206B01280ED100BF00BF2168AA
:103EC0000C3151E8001F21F0100021680C3141E84D
:103ED0000002002AF3D100BF00206063206B01289C
:103EE00004D1A18D2046FEF726FC02E02046FEF715
:103EF00023FF70BD70B50546AC6B01206063206B7D
:103F0000012805D1A08D41082046FEF714FC02E0EF
:103F10002046FEF731FF70BD00BF00BF02680C32C3
:103F200052E8002F22F4907102680C3242E800132C
:103F3000002BF3D100BF00BF00BF0268143252E86B
:103F4000002F22F001010268143242E80013002B16
:103F5000F3D100BF016B01290ED100BF00BF026881
:103F60000C3252E8002F22F0100102680C3242E8B5
:103F70000013002BF3D100BF202180F84210002154
:103F80000163704710B504462068C06820F0400007
:103F90002168C860202084F841002046FEF74CFFCD
:103FA000002010BD00BF00BF02680C3252E8002F95
:103FB00022F0C00102680C3242E80013002BF3D15A
:103FC00000BF202180F841107047F8B5044694F8EE
:103FD0004200222875D1A068B0F5805F0CD120691D
:103FE00050B90025A66A20684068C0F308003080F8
:103FF000A06A801CA06215E0A56A0026A068B0F542
:10400000805F03D0A06828B9206918B9206840688B
:10401000287004E02068406800F07F002870A06AE3
:10402000401CA062E08D401E80B2E085002846D191
:104030002068C06820F020002168C8602068C0683F
:1040400020F480702168C8602068406920F0010079
:1040500021684861202084F8420000206063206BC2
:10406000012826D10020206300BF00BF21680C3149
:1040700051E8001F21F0100021680C3141E80002D6
:10408000002AF3D100BF2068006800F0100010285B
:104090000AD100BF002000902068006800902068CE
:1040A0004068009000BF00BFA18D2046FEF743FB93
:1040B00002E02046FEF740FE0020F8BD01E00020AF
:1040C000FBE70220F9E700002DE9F84F04462068DD
:1040D000006920F44050E1680843216808612169C3
:1040E000A068084361690843E169084300902068BB
:1040F000C06849F20C618843009908432168C86090
:104100002068406920F44070A16908432168486133
:1041100076492068884203D075492068884203D1D7
:10412000FDF754FA814602E0FDF740FA8146E06966
:10413000B0F5004F6CD102206168A0FB015003462E
:104140001920A9FB007001462A463846FCF7ECF816
:104150006421B0FBF1F04FEA001A02206168A0FB75
:1041600001510B461920A9FB00712A463846FCF77D
:10417000DBF8834602206168A0FB0150034619204A
:10418000A9FB00712A463846FCF7CEF86421B0FB43
:10419000F1F000EBC00101EB0010ABEB800032212D
:1041A00001EBC0006421B0FBF1F000F0F8000AEB75
:1041B000400A02206168A0FB015003461920A9FBB8
:1041C000007001462A463846FCF7AEF883460220C6
:1041D0006168A0FB015003461920A9FB00712A4623
:1041E0003846FCF7A1F86421B0FBF1F000EBC00108
:1041F00001EB0010ABEB8000322101EBC000642129
:10420000B0FBF1F000F007005044216888606AE0DC
:1042100004206168A0FB015003461920A9FB00702F
:1042200001462A463846FCF77FF88246042061683A
:10423000A0FB015003461920A9FB007001462A4645
:104240003846FCF771F86421B0FBF1F000EBC001D7
:1042500001EB0010AAEB8000322101EB0010642179
:10426000B0FBF1F000F0F00A04206168A0FB0170DF
:1042700003461920A9FB00513A462846FCF754F89A
:104280006421B0FBF1F00AEB001A04206168A0FB86
:1042900001510B461920A9FB00712A463846FCF74C
:1042A00043F8834604206168A0FB015003461920AF
:1042B000A9FB007001462A463846FCF735F8642110
:1042C000B0FBF1F000EBC00101EB0010ABEB8000A4
:1042D000322101EB00106421B0FBF1F000F00F007F
:1042E000504421688860BDE8F88F0000001001404C
:1042F0000014014077B581B0044615460298A062CB
:10430000A58500206064222084F842002848E16BE3
:10431000C8632848E16B08642748E16BC864002043
:10432000E16B086502AE32682368191D2B46E06B0D
:10433000FCF7EEFD00BF00200090206800680090B0
:1043400020684068009000BF00BF206970B100BFC6
:1043500000BF21680C3151E8001F41F480702168D2
:104360000C3141E80002002AF3D100BF00BF00BFBA
:104370002168143151E8001F41F001002168143117
:1043800041E80002002AF3D100BF00BF00BF21684E
:10439000143151E8001F41F040002168143141E818
:1043A0000002002AF3D100BF002004B070BD00005D
:1043B000413E0008F53E0008F13D0008014691F835
:1043C0004100212828D18868B0F5805F0BD10869A9
:1043D00048B90A6A1088C0F308000B685860086A78
:1043E000801C086205E00B6A581C086218780B688C
:1043F0005860C88C401E80B2C88458B90868C0682C
:1044000020F080000B68D8600868C06840F0400069
:104410000B68D860002070470220FCE72DE9F843C4
:1044200004460D4617469846089E31E0701C70B34E
:10443000FCF7B8FEA0EB0800B04200D816B9032084
:10444000BDE8F8832068C06800F00400F8B1802D52
:104450001ED0402D1CD020680068C0F3C000B0B151
:1044600000BF00200090206800680090206840682D
:10447000009000BF00BF2046FFF74EFD082060649B
:1044800000BF002084F8400000BF0120D8E7FFE70C
:10449000206800682840A84201D1012000E00020E7
:1044A000B842C3D00020CBE708B541480068006897
:1044B00000F0200060B100BF002000903C48006880
:1044C000006800903A4800684068009000BF6EE0C5
:1044D0003848006800F01000002868D000BF0020B5
:1044E00000903348006800680090314800684068D8
:1044F000009000BF00BF30480068006800F4002052
:1045000058BB2D480068006820F001002A4909685E
:104510000860294800684068C0F1240027490880E5
:10452000242025490968486023480068006840F451
:1045300000202149096808601F480068006840F0B1
:1045400001001D49096808601C48008812282ED106
:104550001B491C4800F014FC29E01748006800685B
:1045600020F0010014490968086013480068406899
:10457000C0F124001149088024200F4909684860CF
:104580001148806A20F400200F4988620A480068B8
:10459000006840F001000849096808600748008881
:1045A000122804D106490748243000F0E9FB08BD71
:1045B00094070020004800403C080020A400002090
:1045C000D44500200C4600200060024000BFFEE7FA
:1045D00002480068C0F30220704700000CED00E0C4
:1045E00010B5002804DB0A07130E054A135406E031
:1045F0000A07140E034A00F00F031B1FD45410BD0A
:1046000000E400E018ED00E000487047D4450020C9
:10461000FCF7DAFDFFF79AF9FEF766FCFEF710FCEF
:10462000FEF71EFDFEF75AFDFEF794FDFEF7D0FDE6
:10463000FEF70CFEFEF76CFEFEF7C4FEFEF7A6FECC
:10464000FEF7D8FC04212048FDF7E2FF08211E48B0
:10465000FDF7DEFF0C211C48FDF7DAFF00211B48A7
:10466000FDF7D6FF1A480068C06840F010001849EE
:104670000968C86016480068C06840F01000144916
:104680000968C860102213491148FEF73FFB9FEDEF
:10469000120A124880ED000A9FED0F0A80ED010A10
:1046A0009FED0D0A80ED020A9FED0B0A80ED030AD3
:1046B00000F05CFBFFF7A8FF09490860FEF7E4FB88
:1046C00000F023F800BFFEE7740600200407002076
:1046D0004C070020FC45002000000000EC450020B5
:1046E0000000002001460020842901D0CA1C10448B
:1046F000704770B5044625460DB1294600E00121FA
:10470000084600F0AFFC002070BD10B500F0D8FCEA
:10471000002010BD7FB504460D46606998B1A069C0
:1047200088B1B4F90800FFF7DDFF0646D4E90510AB
:10473000CDE9006102902B462269D4E9001000F017
:104740004BFE039013E0B4F90800FFF7CBFF0646D9
:1047500003A8CDE90060238A9AB22B46D4E9001061
:1047600000F008FE012802D0002004B070BD0398BC
:10477000FBE700002DE9F04105460E461C4807689E
:104780001C480068001D00F068FB50B9194800681B
:1047900090F82C1001208840174909688143164879
:1047A0000160681C38B936B112480168091D134808
:1047B00000F09EFB1AE07C190E4800684460BC4281
:1047C00007D20C480168091D0D48006800F076FB0F
:1047D0000CE008480168091D0A48006800F06EFBFB
:1047E00009480068844201D207480460BDE8F081AE
:1047F000500000203C00002054000020C009002090
:1048000044000020400000206C00002010B5044649
:1048100000F07AFB23480068401C224908602248C7
:10482000006840B9204804600846006801280DD19E
:1048300000F03EF90AE01D48006838B91A480068DF
:10484000C06AE16A884201D81748046018480068C5
:10485000401C1749086094F82C1001208840154925
:104860000968084313490860E16A01EB8101124AB3
:1048700002EB8100211D00F03BFB00F06FFB0B48B9
:10488000006868B108480068C06AE16A884207D2D7
:104890004FF0805009490860BFF34F8FBFF36F8F0F
:1048A00010BD00004C0000203C00002058000020FB
:1048B0006800002054000020E408002004ED00E01F
:1048C00010B516E000F020FB0C48C068C468201D3D
:1048D00000F0C3FA0A480068401E09490860094808
:1048E0000068401E0749086000F038FB204600F0D1
:1048F0000BF8044800680028E4D110BDAC09002082
:104900004C0000204800002010B5044694F85100E7
:1049100030B9206B00F040FB204600F03DFB1AE070
:1049200094F85100012803D1204600F035FB12E035
:1049300094F85100022801D1012000E0002050B974
:1049400000BF502080F31188BFF34F8FBFF36F8FEC
:1049500000BF00BFFEE710BD30B54FF470531748DD
:1049600000F007042CB1C01D20F00700134C041BFD
:104970001B1B0246124C22600024114D6C60D018A3
:10498000083820F007000F4C206000240D4D2D68E2
:104990006C600C4D2D682C601146441A4C60094C1B
:1049A00024680C60084D4C682C60084D4C682C60E5
:1049B0004FF00044064D2C6030BD0000D4090020AB
:1049C0007800002080000020880000208400002063
:1049D0009400002000BFFFF773FF0648006801281D
:1049E000F9D94FF0805004490860BFF34F8FBFF3EF
:1049F0006F8FF0E7E408002004ED00E02DE9FF5F91
:104A000081460E469246DDE90E7B109CAAF101001C
:104A1000216B01EB800828F0070808F0070008B9AF
:104A2000012000E0002050B900BF502080F3118821
:104A3000BFF34F8FBFF36F8F00BF00BFFEE786B19C
:104A4000002507E0715D04F134004155705D00B947
:104A500002E06D1C102DF5D300BF0021432001554D
:104A600002E0002084F83400072F00D30627E76215
:104A700067640020A064201D00F01DFA04F11800F6
:104A800000F019FA2461C7F10700A06164620020F8
:104A9000E06484F8500049464046039A00F050F91B
:104AA0002060BBF1000F01D0CBF80040BDE8FF9FB4
:104AB00010B5002407E004EB84010F4A02EB8100EB
:104AC00000F0ECF9641C072CF5D30C4800F0E6F973
:104AD0000B4800F0E3F90B4800F0E0F90A4800F059
:104AE000DDF90A4800F0DAF9044809490860044889
:104AF0000849086010BD0000E4080020700900208B
:104B00008409002098090020AC090020C009002079
:104B1000400000204400002010B50146164800E087
:104B2000006803688B42FBD30246436813448B4200
:104B300004D143684C682344436001460A464B68ED
:104B400013440468A34211D10C4C03682468A342A7
:104B500008D04B680468646823444B6003681B6892
:104B60000B6005E0054B1B680B6001E003680B6000
:104B7000884200D0016010BD780000208000002035
:104B80000A490968096809B9012100E0002121B139
:104B90004FF0FF31064A116006E004490968C96810
:104BA000C868034A41681160704700004000002057
:104BB0006C0000200E480068401C08B9012000E08D
:104BC000002050B900BF502080F31188BFF34F8FF1
:104BD000BFF36F8F00BF00BFFEE700BF502080F320
:104BE0001188BFF34F8FBFF36F8F00BF00BFFEE789
:104BF000980000202DE9F04104464FF0000800F035
:104C0000B7FA4948006808B9FFF7A6FE47480068A8
:104C10002040002870D1D4B1083404F00700B0B1AE
:104C200004F00700C0F10800044404F0070008B9CC
:104C3000012000E0002050B900BF502080F311880F
:104C4000BFF34F8FBFF36F8F00BF00BFFEE7002C95
:104C500052D03748006884424ED8364E30460568F8
:104C600001E02E462D686868A04202D2286800281C
:104C7000F7D12D48006885423ED0306800F1080821
:104C8000286830606868001B102819D92F1907F0B0
:104C9000070008B9012000E0002050B900BF5020F3
:104CA00080F31188BFF34F8FBFF36F8F00BF00BF3A
:104CB000FEE76868001B78606C603846FFF72CFFE1
:104CC0001B4968680968081A19490860084600689D
:104CD00019490968884203D21548006816490860D6
:104CE0001249686809680843686000202860134812
:104CF0000068401C1149086000F070FC08F00700D3
:104D000008B9012000E0002050B900BF502080F316
:104D10001188BFF34F8FBFF36F8F00BF00BFFEE757
:104D20004046BDE8F0810000800000209400002093
:104D30008400002078000020880000208C000020E3
:104D4000001F4FF080730360001F21F00103036018
:104D5000001F054B036014380260001F6FF0020350
:104D60000360203870470000B54B000810B52422BE
:104D70000249A1F12400FEF75BFD10BD3046002082
:104D800000B101B970470278437842EA0322C2F3C6
:104D90000A020A804278D210837842EA4312C2F3B0
:104DA0000A024A8082789211C37842EA8302037928
:104DB00042EA8322C2F30A028A80027952104379BE
:104DC00042EAC312C2F30A02CA804279C2F3011254
:104DD0008A72427912119308CB728279C37942EABE
:104DE000032212B28A81027A437A42EA032213B280
:104DF00001F10C02CB81827AC37A42EA032213B218
:104E000001F10C020B82037B8B74437BCB74827B9E
:104E1000C37B42EA03228A82027C437C42EA032269
:104E200012B20A810A88A2F5806212B20A804A8808
:104E3000A2F5806212B24A808A88A2F5806212B21C
:104E40008A80CA88A2F5806212B2CA800A89A2F555
:104E5000806212B20A8100BF94E701460A69D1E973
:104E600001309860D1E9010358605068884201D14F
:104E700088685060002008611068401E106010684B
:104E800070470000034B0360034B0B6080231360EB
:104E900070470000000300205403002000F10801C7
:104EA00041604FF0FF31816000F10801C160016194
:104EB00000210160704700210161704710B5024672
:104EC0000B685C1C0CB9106907E002F1080000E0F7
:104ED0004068446824689C42FAD944684C604C6835
:104EE000A160886041600A611468641C146010BD90
:104EF00042684A6093688B6093685960916008616A
:104F000003685B1C0360704700BF502080F311886A
:104F1000BFF34F8FBFF36F8F00BF0E480068401C78
:104F20000C49086008460068012812D10A48006848
:104F3000C0B208B9012000E0002050B900BF5020E5
:104F400080F31188BFF34F8FBFF36F8F00BF00BF97
:104F5000FEE770479800002004ED00E00D4800686F
:104F600050B900BF502080F31188BFF34F8FBFF3BB
:104F70006F8F00BF00BFFEE706480068401E05496E
:104F800008600846006820B9002080F3118800BF3F
:104F900000BF70479800002070B506463546002EC9
:104FA00044D0083D2C46224960680968084008B191
:104FB000012000E0002050B900BF502080F311888C
:104FC000BFF34F8FBFF36F8F00BF00BFFEE72068B6
:104FD00008B9012000E0002050B900BF502080F344
:104FE0001188BFF34F8FBFF36F8F00BF00BFFEE785
:104FF0000F49606809680840C0B12068B0B90C4921
:10500000606809688843606000F0B2F80949606828
:1050100009680844074908602046FFF77DFD0648F7
:105020000068401C0449086000F0D8FA70BD000018
:1050300094000020840000209000002000204FF009
:10504000E02108618861064800684FF47A71B0FB7E
:10505000F1F0401E4FF0E0214861072008617047E1
:105060003800002070B504460025D4B1124800680D
:1050700008B9012000E0002050B900BF502080F3A3
:105080001188BFF34F8FBFF36F8F00BF00BFFEE7E4
:1050900000F06EF800212046FFF76CFB00F09EFA4E
:1050A00005463DB94FF0805004490860BFF34F8F6B
:1050B000BFF36F8F70BD00007400002004ED00E0AE
:1050C00010B586B000200590049003AA04A905A895
:1050D000FFF7D8FE0022DDE904101346CDE90021D8
:1050E00002901CA11D48039A00F076F91C49086043
:1050F0000846006808B1012400E00024012C15D105
:1051000000BF502080F31188BFF34F8FBFF36F8F24
:1051100000BF4FF0FF3013490860012012490860BA
:1051200000201249086000F071F810E0601C08B11E
:10513000012000E0002050B900BF502080F311880A
:10514000BFF34F8FBFF36F8F00BF00BFFEE706B006
:1051500010BD000049444C4500000000D54900083E
:10516000700000206C00002058000020500000203B
:1051700002480068401C0149086070477400002024
:105180001D48006818B101201C49086032E0002069
:105190001A4908601A480068B0FA80F0C0F11F018F
:1051A00001EB8100174A52F8200008B1012000E00D
:1051B000002050B900BF502080F31188BFF34F8FFB
:1051C000BFF36F8F00BF00BFFEE701EB81020D4B05
:1051D00003EB820042685268426000F108024368B3
:1051E000934202D14268526842604268D268064BDC
:1051F0001A6000BF704700007400002060000020AB
:1052000054000020E40800203C0000201CB5524857
:1052100000685249884201D0012000E0002050B9C6
:1052200000BF502080F31188BFF34F8FBFF36F8F03
:1052300000BF00BFFEE7484800684849491E884251
:1052400001D0012000E0002050B900BF502080F3C1
:105250001188BFF34F8FBFF36F8F00BF00BFFEE712
:105260003F49084600780190FF200A461070084622
:10527000007800909DF8000000F0F0009DF80020FC
:10528000904201D1012000E0002050B900BF502021
:1052900080F31188BFF34F8FBFF36F8F00BF00BF44
:1052A000FEE79DF8000000F050002E4A1070072025
:1052B0002D4A106009E02C480068401E2A4A106000
:1052C0009DF800004006000E00909DF8000000F0E0
:1052D00080008028EFD024480068C0F1070004282F
:1052E00001D1012000E0002050B900BF502080F320
:1052F0001188BFF34F8FBFF36F8F00BF00BFFEE772
:10530000194800680002184A10601046008800F42E
:10531000E0601060124A019810700F482030006859
:1053200040F470000C49203108600846006840F0E5
:1053300070400860FFF782FE00200C490860FAF711
:1053400097FF0B48006840F0404009490860FAF7B1
:105350007BFF00201CBD000000ED00E071C20F418A
:1053600000E400E09C000020A00000209800002045
:1053700034EF00E02DE9FF4F85B08046894617469F
:10538000DDE912ABB800FFF735FC064656B15420F4
:10539000FFF730FC04460CB1266304E03046FFF70B
:1053A000FBFD00E000248CB1002084F85100CDE921
:1053B00000ABCDE902403A4649464046089BFFF71C
:1053C0001DFB2046FFF722FA012501E04FF0FF35D3
:1053D000284609B0BDE8F08F2DE9F04F85B00746AB
:1053E000884691469A46DDE90EB6109C0EB1012022
:1053F00000E0002050B900BF502080F31188BFF3B7
:105400004F8FBFF36F8F00BF00BFFEE70CB10120CD
:1054100000E0002050B900BF502080F31188BFF396
:105420004F8FBFF36F8F00BF00BFFEE75420039084
:105430000398542801D1012000E0002050B900BF9A
:10544000502080F31188BFF34F8FBFF36F8F00BFE1
:1054500000BFFEE700BFB4B1AEB125462C462E63B7
:10546000022085F85100002004A953464A46CDE9A0
:1054700000B1CDE9025041463846FFF7BFFA284651
:10548000FFF7C4F901E000200490049805B0BDE8DE
:10549000F08F00002DE9F0414FF00008444800680B
:1054A00000287CD143480068451C4248056015BB74
:1054B00041480068006808B9012000E0002050B9A8
:1054C00000BF502080F31188BFF34F8FBFF36F8F61
:1054D00000BF00BFFEE73848076838480068364913
:1054E00008603648076036480068401C3449086048
:1054F000FFF746FB00BF3348006885423CD300BF3E
:105500002D480068006808B9012000E0002020B1A3
:105510004FF0FF302B4908602DE027480068C06835
:10552000C4686668B54202D22648066023E0201DA2
:10553000FFF793FCA06A18B104F11800FFF78DFC87
:1055400094F82C10012088401F49096808431E491F
:105550000860E16A01EB81011C4A02EB8100211D18
:10556000FFF7C6FC1A49E06A0968C96A8842C7D3CE
:105570004FF00108C4E700BF15480068C06A00EB9F
:105580008000124951F82000012801D94FF001088C
:105590001048006808B14FF0010805E0FFE70E4829
:1055A0000068401C0C4908604046BDE8F0810000DE
:1055B0007400002050000020400000204400002023
:1055C000640000206C00002054000020E40800204B
:1055D0003C000020600000205C00002070B500242A
:1055E00000263648006850B900BF502080F311886B
:1055F000BFF34F8FBFF36F8F00BF00BFFEE7FFF712
:1056000083FC2E480068401E2C490860084600684C
:1056100000284FD12A48006800284BD024E02948B0
:10562000C068C46804F11800FFF717FC201DFFF7DD
:1056300014FC94F82C100120884023490968084381
:1056400021490860E16A01EB8101204A02EB8100F7
:10565000211DFFF74DFC1E49E06A0968C96A8842AE
:1056600002D301201B4908601648006808B90120D0
:1056700000E000200028D2D00CB1FFF781FA1648D4
:10568000056865B100BFFFF705FF10B101201149A2
:1056900008606D1E002DF6D100200F4908600D48EE
:1056A000006838B1012630070C490860BFF34F8FFE
:1056B000BFF36F8FFFF752FC304670BD74000020BF
:1056C0004C0000209809002054000020E40800202D
:1056D0003C000020600000205C00002004ED00E0A1
:1056E0004FF04070E1EE100A70470000605700086C
:1056F0000D390008000000000000000080000000DC
:105700000000000000000000745700083134000859
:105710000000000000000000000200000000000087
:10572000000000006C57000821090008000000007C
:105730000000000000020000000000000000000067
:105740000006101600061016000000000000000001
:105750000102030406070809000000000102030417
:1057600064656661756C745461736B0047696D6242
:10577000616C00004D6F746F720000009C57000850
:1057800000000020A8000000C401000844580008E0
:10579000A8000020104C0000E001000800000000FC
:1057A00000000000000000000200000000000000F7
:1057B000000000000000000014000000460000008F
:1057C0006400000000000000000000001000000065
:1057D000010000000024F4000000000000000000B0
:1057E00000000000000000000000000000000000B9
:1057F00000000000000000000000000000000000A9
:105800000000000000000000000000000000000098
:105810000000000000000000000000000000000088
:105820000000000000000000000000000000000078
:1058300000000000AAAAAAAA0000000000000000C0
:045840000000000064
:040000050800018965
:00000001FF
